{
  "contractName": "ConvictionVoting",
  "abi": [
    {
      "constant": true,
      "inputs": [],
      "name": "hasInitialized",
      "outputs": [
        {
          "name": "",
          "type": "bool"
        }
      ],
      "payable": false,
      "stateMutability": "view",
      "type": "function"
    },
    {
      "constant": true,
      "inputs": [],
      "name": "proposalCounter",
      "outputs": [
        {
          "name": "",
          "type": "uint256"
        }
      ],
      "payable": false,
      "stateMutability": "view",
      "type": "function"
    },
    {
      "constant": true,
      "inputs": [],
      "name": "D",
      "outputs": [
        {
          "name": "",
          "type": "uint256"
        }
      ],
      "payable": false,
      "stateMutability": "view",
      "type": "function"
    },
    {
      "constant": true,
      "inputs": [
        {
          "name": "_script",
          "type": "bytes"
        }
      ],
      "name": "getEVMScriptExecutor",
      "outputs": [
        {
          "name": "",
          "type": "address"
        }
      ],
      "payable": false,
      "stateMutability": "view",
      "type": "function"
    },
    {
      "constant": true,
      "inputs": [],
      "name": "getRecoveryVault",
      "outputs": [
        {
          "name": "",
          "type": "address"
        }
      ],
      "payable": false,
      "stateMutability": "view",
      "type": "function"
    },
    {
      "constant": false,
      "inputs": [
        {
          "name": "_from",
          "type": "address"
        },
        {
          "name": "_to",
          "type": "address"
        },
        {
          "name": "_amount",
          "type": "uint256"
        }
      ],
      "name": "onTransfer",
      "outputs": [
        {
          "name": "",
          "type": "bool"
        }
      ],
      "payable": false,
      "stateMutability": "nonpayable",
      "type": "function"
    },
    {
      "constant": false,
      "inputs": [
        {
          "name": "_hookId",
          "type": "uint256"
        },
        {
          "name": "_token",
          "type": "address"
        }
      ],
      "name": "onRegisterAsHook",
      "outputs": [],
      "payable": false,
      "stateMutability": "nonpayable",
      "type": "function"
    },
    {
      "constant": true,
      "inputs": [],
      "name": "requestToken",
      "outputs": [
        {
          "name": "",
          "type": "address"
        }
      ],
      "payable": false,
      "stateMutability": "view",
      "type": "function"
    },
    {
      "constant": true,
      "inputs": [],
      "name": "stakeToken",
      "outputs": [
        {
          "name": "",
          "type": "address"
        }
      ],
      "payable": false,
      "stateMutability": "view",
      "type": "function"
    },
    {
      "constant": true,
      "inputs": [],
      "name": "decay",
      "outputs": [
        {
          "name": "",
          "type": "uint256"
        }
      ],
      "payable": false,
      "stateMutability": "view",
      "type": "function"
    },
    {
      "constant": true,
      "inputs": [],
      "name": "maxRatio",
      "outputs": [
        {
          "name": "",
          "type": "uint256"
        }
      ],
      "payable": false,
      "stateMutability": "view",
      "type": "function"
    },
    {
      "constant": true,
      "inputs": [
        {
          "name": "token",
          "type": "address"
        }
      ],
      "name": "allowRecoverability",
      "outputs": [
        {
          "name": "",
          "type": "bool"
        }
      ],
      "payable": false,
      "stateMutability": "view",
      "type": "function"
    },
    {
      "constant": true,
      "inputs": [],
      "name": "appId",
      "outputs": [
        {
          "name": "",
          "type": "bytes32"
        }
      ],
      "payable": false,
      "stateMutability": "view",
      "type": "function"
    },
    {
      "constant": true,
      "inputs": [],
      "name": "getInitializationBlock",
      "outputs": [
        {
          "name": "",
          "type": "uint256"
        }
      ],
      "payable": false,
      "stateMutability": "view",
      "type": "function"
    },
    {
      "constant": false,
      "inputs": [
        {
          "name": "_token",
          "type": "address"
        }
      ],
      "name": "transferToVault",
      "outputs": [],
      "payable": false,
      "stateMutability": "nonpayable",
      "type": "function"
    },
    {
      "constant": true,
      "inputs": [
        {
          "name": "_sender",
          "type": "address"
        },
        {
          "name": "_role",
          "type": "bytes32"
        },
        {
          "name": "_params",
          "type": "uint256[]"
        }
      ],
      "name": "canPerform",
      "outputs": [
        {
          "name": "",
          "type": "bool"
        }
      ],
      "payable": false,
      "stateMutability": "view",
      "type": "function"
    },
    {
      "constant": true,
      "inputs": [],
      "name": "weight",
      "outputs": [
        {
          "name": "",
          "type": "uint256"
        }
      ],
      "payable": false,
      "stateMutability": "view",
      "type": "function"
    },
    {
      "constant": true,
      "inputs": [],
      "name": "getEVMScriptRegistry",
      "outputs": [
        {
          "name": "",
          "type": "address"
        }
      ],
      "payable": false,
      "stateMutability": "view",
      "type": "function"
    },
    {
      "constant": false,
      "inputs": [
        {
          "name": "_hookId",
          "type": "uint256"
        },
        {
          "name": "_token",
          "type": "address"
        }
      ],
      "name": "onRevokeAsHook",
      "outputs": [],
      "payable": false,
      "stateMutability": "nonpayable",
      "type": "function"
    },
    {
      "constant": true,
      "inputs": [],
      "name": "kernel",
      "outputs": [
        {
          "name": "",
          "type": "address"
        }
      ],
      "payable": false,
      "stateMutability": "view",
      "type": "function"
    },
    {
      "constant": false,
      "inputs": [
        {
          "name": "_holder",
          "type": "address"
        },
        {
          "name": "_spender",
          "type": "address"
        },
        {
          "name": "_amount",
          "type": "uint256"
        }
      ],
      "name": "onApprove",
      "outputs": [
        {
          "name": "",
          "type": "bool"
        }
      ],
      "payable": false,
      "stateMutability": "nonpayable",
      "type": "function"
    },
    {
      "constant": true,
      "inputs": [],
      "name": "isPetrified",
      "outputs": [
        {
          "name": "",
          "type": "bool"
        }
      ],
      "payable": false,
      "stateMutability": "view",
      "type": "function"
    },
    {
      "constant": true,
      "inputs": [],
      "name": "CREATE_PROPOSALS_ROLE",
      "outputs": [
        {
          "name": "",
          "type": "bytes32"
        }
      ],
      "payable": false,
      "stateMutability": "view",
      "type": "function"
    },
    {
      "constant": true,
      "inputs": [],
      "name": "vault",
      "outputs": [
        {
          "name": "",
          "type": "address"
        }
      ],
      "payable": false,
      "stateMutability": "view",
      "type": "function"
    },
    {
      "anonymous": false,
      "inputs": [
        {
          "indexed": false,
          "name": "entity",
          "type": "address"
        },
        {
          "indexed": false,
          "name": "id",
          "type": "uint256"
        },
        {
          "indexed": false,
          "name": "title",
          "type": "string"
        },
        {
          "indexed": false,
          "name": "link",
          "type": "bytes"
        },
        {
          "indexed": false,
          "name": "amount",
          "type": "uint256"
        },
        {
          "indexed": false,
          "name": "beneficiary",
          "type": "address"
        }
      ],
      "name": "ProposalAdded",
      "type": "event"
    },
    {
      "anonymous": false,
      "inputs": [
        {
          "indexed": false,
          "name": "entity",
          "type": "address"
        },
        {
          "indexed": false,
          "name": "id",
          "type": "uint256"
        },
        {
          "indexed": false,
          "name": "amount",
          "type": "uint256"
        },
        {
          "indexed": false,
          "name": "tokensStaked",
          "type": "uint256"
        },
        {
          "indexed": false,
          "name": "totalTokensStaked",
          "type": "uint256"
        },
        {
          "indexed": false,
          "name": "conviction",
          "type": "uint256"
        }
      ],
      "name": "StakeAdded",
      "type": "event"
    },
    {
      "anonymous": false,
      "inputs": [
        {
          "indexed": false,
          "name": "entity",
          "type": "address"
        },
        {
          "indexed": false,
          "name": "id",
          "type": "uint256"
        },
        {
          "indexed": false,
          "name": "amount",
          "type": "uint256"
        },
        {
          "indexed": false,
          "name": "tokensStaked",
          "type": "uint256"
        },
        {
          "indexed": false,
          "name": "totalTokensStaked",
          "type": "uint256"
        },
        {
          "indexed": false,
          "name": "conviction",
          "type": "uint256"
        }
      ],
      "name": "StakeWithdrawn",
      "type": "event"
    },
    {
      "anonymous": false,
      "inputs": [
        {
          "indexed": false,
          "name": "id",
          "type": "uint256"
        },
        {
          "indexed": false,
          "name": "conviction",
          "type": "uint256"
        }
      ],
      "name": "ProposalExecuted",
      "type": "event"
    },
    {
      "anonymous": false,
      "inputs": [
        {
          "indexed": true,
          "name": "executor",
          "type": "address"
        },
        {
          "indexed": false,
          "name": "script",
          "type": "bytes"
        },
        {
          "indexed": false,
          "name": "input",
          "type": "bytes"
        },
        {
          "indexed": false,
          "name": "returnData",
          "type": "bytes"
        }
      ],
      "name": "ScriptResult",
      "type": "event"
    },
    {
      "anonymous": false,
      "inputs": [
        {
          "indexed": true,
          "name": "vault",
          "type": "address"
        },
        {
          "indexed": true,
          "name": "token",
          "type": "address"
        },
        {
          "indexed": false,
          "name": "amount",
          "type": "uint256"
        }
      ],
      "name": "RecoverToVault",
      "type": "event"
    },
    {
      "constant": false,
      "inputs": [
        {
          "name": "_stakeToken",
          "type": "address"
        },
        {
          "name": "_vault",
          "type": "address"
        },
        {
          "name": "_requestToken",
          "type": "address"
        },
        {
          "name": "_decay",
          "type": "uint256"
        },
        {
          "name": "_maxRatio",
          "type": "uint256"
        },
        {
          "name": "_weight",
          "type": "uint256"
        }
      ],
      "name": "initialize",
      "outputs": [],
      "payable": false,
      "stateMutability": "nonpayable",
      "type": "function"
    },
    {
      "constant": false,
      "inputs": [
        {
          "name": "_stakeToken",
          "type": "address"
        },
        {
          "name": "_vault",
          "type": "address"
        },
        {
          "name": "_requestToken",
          "type": "address"
        }
      ],
      "name": "initialize",
      "outputs": [],
      "payable": false,
      "stateMutability": "nonpayable",
      "type": "function"
    },
    {
      "constant": false,
      "inputs": [
        {
          "name": "_stakeToken",
          "type": "address"
        },
        {
          "name": "_vault",
          "type": "address"
        },
        {
          "name": "_requestToken",
          "type": "address"
        },
        {
          "name": "_decay",
          "type": "uint256"
        },
        {
          "name": "_maxRatio",
          "type": "uint256"
        }
      ],
      "name": "initialize",
      "outputs": [],
      "payable": false,
      "stateMutability": "nonpayable",
      "type": "function"
    },
    {
      "constant": false,
      "inputs": [
        {
          "name": "_title",
          "type": "string"
        },
        {
          "name": "_link",
          "type": "bytes"
        },
        {
          "name": "_requestedAmount",
          "type": "uint256"
        },
        {
          "name": "_beneficiary",
          "type": "address"
        }
      ],
      "name": "addProposal",
      "outputs": [],
      "payable": false,
      "stateMutability": "nonpayable",
      "type": "function"
    },
    {
      "constant": false,
      "inputs": [
        {
          "name": "_id",
          "type": "uint256"
        },
        {
          "name": "_amount",
          "type": "uint256"
        }
      ],
      "name": "stakeToProposal",
      "outputs": [],
      "payable": false,
      "stateMutability": "nonpayable",
      "type": "function"
    },
    {
      "constant": false,
      "inputs": [
        {
          "name": "_id",
          "type": "uint256"
        }
      ],
      "name": "stakeAllToProposal",
      "outputs": [],
      "payable": false,
      "stateMutability": "nonpayable",
      "type": "function"
    },
    {
      "constant": false,
      "inputs": [
        {
          "name": "_id",
          "type": "uint256"
        },
        {
          "name": "_amount",
          "type": "uint256"
        }
      ],
      "name": "withdrawFromProposal",
      "outputs": [],
      "payable": false,
      "stateMutability": "nonpayable",
      "type": "function"
    },
    {
      "constant": false,
      "inputs": [
        {
          "name": "_id",
          "type": "uint256"
        }
      ],
      "name": "withdrawAllFromProposal",
      "outputs": [],
      "payable": false,
      "stateMutability": "nonpayable",
      "type": "function"
    },
    {
      "constant": false,
      "inputs": [
        {
          "name": "_id",
          "type": "uint256"
        },
        {
          "name": "_withdrawIfPossible",
          "type": "bool"
        }
      ],
      "name": "executeProposal",
      "outputs": [],
      "payable": false,
      "stateMutability": "nonpayable",
      "type": "function"
    },
    {
      "constant": true,
      "inputs": [
        {
          "name": "_id",
          "type": "uint256"
        }
      ],
      "name": "getProposal",
      "outputs": [
        {
          "name": "",
          "type": "uint256"
        },
        {
          "name": "",
          "type": "address"
        },
        {
          "name": "",
          "type": "uint256"
        },
        {
          "name": "",
          "type": "uint256"
        },
        {
          "name": "",
          "type": "uint64"
        },
        {
          "name": "",
          "type": "bool"
        }
      ],
      "payable": false,
      "stateMutability": "view",
      "type": "function"
    },
    {
      "constant": true,
      "inputs": [
        {
          "name": "_voter",
          "type": "address"
        }
      ],
      "name": "getProposalVoterStake",
      "outputs": [
        {
          "name": "",
          "type": "uint256"
        }
      ],
      "payable": false,
      "stateMutability": "view",
      "type": "function"
    },
    {
      "constant": true,
      "inputs": [
        {
          "name": "_id",
          "type": "uint256"
        },
        {
          "name": "_voter",
          "type": "address"
        }
      ],
      "name": "getProposalVoterStake",
      "outputs": [
        {
          "name": "",
          "type": "uint256"
        }
      ],
      "payable": false,
      "stateMutability": "view",
      "type": "function"
    },
    {
      "constant": true,
      "inputs": [
        {
          "name": "_timePassed",
          "type": "uint64"
        },
        {
          "name": "_lastConv",
          "type": "uint256"
        },
        {
          "name": "_oldAmount",
          "type": "uint256"
        }
      ],
      "name": "calculateConviction",
      "outputs": [
        {
          "name": "",
          "type": "uint256"
        }
      ],
      "payable": false,
      "stateMutability": "view",
      "type": "function"
    },
    {
      "constant": true,
      "inputs": [
        {
          "name": "_requestedAmount",
          "type": "uint256"
        }
      ],
      "name": "calculateThreshold",
      "outputs": [
        {
          "name": "_threshold",
          "type": "uint256"
        }
      ],
      "payable": false,
      "stateMutability": "view",
      "type": "function"
    }
  ],
  "bytecode": "0x6080604052620000176401000000006200001d810204565b6200023b565b6200003064010000000062000125810204565b60408051808201909152601881527f494e49545f414c52454144595f494e495449414c495a45440000000000000000602082015290156200010c576040517f08c379a00000000000000000000000000000000000000000000000000000000081526004018080602001828103825283818151815260200191508051906020019080838360005b83811015620000d0578181015183820152602001620000b6565b50505050905090810190601f168015620000fe5780820380516001836020036101000a031916815260200191505b509250505060405180910390fd5b506200012360001964010000000062000154810204565b565b60006200014f600080516020620042d2833981519152640100000000620033806200023382021704565b905090565b6200016764010000000062000125810204565b60408051808201909152601881527f494e49545f414c52454144595f494e495449414c495a454400000000000000006020820152901562000206576040517f08c379a000000000000000000000000000000000000000000000000000000000815260040180806020018281038252838181518152602001915080519060200190808383600083811015620000d0578181015183820152602001620000b6565b5062000230600080516020620042d283398151915282640100000000620033846200023782021704565b50565b5490565b9055565b614087806200024b6000396000f3006080604052600436106101d75763ffffffff7c01000000000000000000000000000000000000000000000000000000006000350416630334108281146101dc5780630803fac0146102265780630c0512e91461024f5780630f529ba2146102765780631df67d2f1461028b5780632914b9bd146102a35780632fb082ad1461032557806332f0a3b5146103425780634a393149146103575780634d4eb6ce1461038e5780634d7ec628146103bf5780634fb3cbbc146103d457806351ed6a30146103ec57806354fac9191461040157806359a5db8b14610416578063649c649c1461042e5780636afea24214610449578063728cdbca1461047757806376365af7146104ba5780637e7db6e1146104cf57806380afdea8146104fd5780638b3dd749146105125780639d4941d814610527578063a1658fad14610555578063a1aab33f146105c9578063a479e508146105de578063a6b63eb8146105f3578063c0c53b8b14610633578063c2239b241461066d578063c7f758a81461069e578063d4aae0c41461070a578063da682aeb1461071f578063dac6126014610756578063de4796ed1461077e578063e0dd2c3814610793578063eeabf67e146107c4578063fbfa77cf146107d9578063fc370051146107ee575b600080fd5b3480156101e857600080fd5b50610224602460048035828101929082013591813591820191013560443573ffffffffffffffffffffffffffffffffffffffff60643516610809565b005b34801561023257600080fd5b5061023b610aa5565b604080519115158252519081900360200190f35b34801561025b57600080fd5b50610264610ace565b60408051918252519081900360200190f35b34801561028257600080fd5b50610264610ad4565b34801561029757600080fd5b50610224600435610adb565b3480156102af57600080fd5b506040805160206004803580820135601f81018490048402850184019095528484526102fc943694929360249392840191908190840183828082843750949750610d089650505050505050565b6040805173ffffffffffffffffffffffffffffffffffffffff9092168252519081900360200190f35b34801561033157600080fd5b506102246004356024351515610e14565b34801561034e57600080fd5b506102fc6111ee565b34801561036357600080fd5b5061023b73ffffffffffffffffffffffffffffffffffffffff6004358116906024351660443561128c565b34801561039a57600080fd5b5061022460043573ffffffffffffffffffffffffffffffffffffffff60243516611475565b3480156103cb57600080fd5b506102fc611684565b3480156103e057600080fd5b506102246004356116a0565b3480156103f857600080fd5b506102fc611773565b34801561040d57600080fd5b5061026461178f565b34801561042257600080fd5b50610264600435611795565b34801561043a57600080fd5b50610224600435602435611ac7565b34801561045557600080fd5b5061026473ffffffffffffffffffffffffffffffffffffffff60043516611b78565b34801561048357600080fd5b5061022473ffffffffffffffffffffffffffffffffffffffff6004358116906024358116906044351660643560843560a435611ba0565b3480156104c657600080fd5b50610264611ccb565b3480156104db57600080fd5b5061023b73ffffffffffffffffffffffffffffffffffffffff60043516611cd1565b34801561050957600080fd5b50610264611cd7565b34801561051e57600080fd5b50610264611d07565b34801561053357600080fd5b5061022473ffffffffffffffffffffffffffffffffffffffff60043516611d32565b34801561056157600080fd5b50604080516020600460443581810135838102808601850190965280855261023b95833573ffffffffffffffffffffffffffffffffffffffff169560248035963696956064959394920192918291850190849080828437509497506120549650505050505050565b3480156105d557600080fd5b506102646121e4565b3480156105ea57600080fd5b506102fc6121ea565b3480156105ff57600080fd5b5061022473ffffffffffffffffffffffffffffffffffffffff600435811690602435811690604435166064356084356122ac565b34801561063f57600080fd5b5061022473ffffffffffffffffffffffffffffffffffffffff6004358116906024358116906044351661237e565b34801561067957600080fd5b5061022460043573ffffffffffffffffffffffffffffffffffffffff60243516612447565b3480156106aa57600080fd5b506106b66004356125f5565b6040805196875273ffffffffffffffffffffffffffffffffffffffff909516602087015285850193909352606085019190915267ffffffffffffffff166080840152151560a0830152519081900360c00190f35b34801561071657600080fd5b506102fc612657565b34801561072b57600080fd5b5061023b73ffffffffffffffffffffffffffffffffffffffff60043581169060243516604435612682565b34801561076257600080fd5b5061026467ffffffffffffffff60043516602435604435612831565b34801561078a57600080fd5b5061023b612902565b34801561079f57600080fd5b5061026460043573ffffffffffffffffffffffffffffffffffffffff60243516612933565b3480156107d057600080fd5b5061026461296c565b3480156107e557600080fd5b506102fc6129a1565b3480156107fa57600080fd5b506102246004356024356129bd565b610811610aa5565b60408051808201909152601481527f494e49545f4e4f545f494e495449414c495a454400000000000000000000000060208201529015156108ea576040517f08c379a00000000000000000000000000000000000000000000000000000000081526004018080602001828103825283818151815260200191508051906020019080838360005b838110156108af578181015183820152602001610897565b50505050905090810190601f1680156108dc5780820380516001836020036101000a031916815260200191505b509250505060405180910390fd5b506040805160c0808201835284825273ffffffffffffffffffffffffffffffffffffffff8481166020808501828152600086880181815260608089018381526080808b0185815260a0808d0187815260048054895260088b52978f90209d518e55975160018e0180547fffffffffffffffffffffffff00000000000000000000000000000000000000001691909c1617909a55935160028c0155905160038b01559151988301805494517fffffffffffffffffffffffffffffffffffffffffffffffff000000000000000090951667ffffffffffffffff909a16999099177fffffffffffffffffffffffffffffffffffffffffffffff00ffffffffffffffff16680100000000000000009415159490940293909317909755548751338082529381018290529687018a9052938601929092529484018381529284018a90527f9fc9ab43300923a3b8d47f890603798c652956421ae650ed96c526f311d2c2ac949391928b928b928b928b928b928b9290820160e083018989808284379091018481038352878152602001905087878082843760405192018290039c50909a5050505050505050505050a1505060048054600101905550505050565b600080610ab0611d07565b90508015801590610ac8575080610ac5612a6e565b10155b91505090565b60045481565b6298968081565b610ae3610aa5565b60408051808201909152601481527f494e49545f4e4f545f494e495449414c495a45440000000000000000000000006020820152901515610b80576040517f08c379a0000000000000000000000000000000000000000000000000000000008152600401808060200182810382528381815181526020019150805190602001908083836000838110156108af578181015183820152602001610897565b5033600090815260096020908152604091829020548251606081018452602881527f434f4e56494354494f4e5f564f54494e475f5354414b494e475f414c52454144928101929092527f595f5354414b4544000000000000000000000000000000000000000000000000928201929092529015610c59576040517f08c379a0000000000000000000000000000000000000000000000000000000008152600401808060200182810382528381815181526020019150805190602001908083836000838110156108af578181015183820152602001610897565b50600554604080517f70a082310000000000000000000000000000000000000000000000000000000081523360048201529051610d0592849273ffffffffffffffffffffffffffffffffffffffff909116916370a08231916024808201926020929091908290030181600087803b158015610cd357600080fd5b505af1158015610ce7573d6000803e3d6000fd5b505050506040513d6020811015610cfd57600080fd5b505133612a72565b50565b6000610d126121ea565b73ffffffffffffffffffffffffffffffffffffffff166304bf2a7f836040518263ffffffff167c01000000000000000000000000000000000000000000000000000000000281526004018080602001828103825283818151815260200191508051906020019080838360005b83811015610d96578181015183820152602001610d7e565b50505050905090810190601f168015610dc35780820380516001836020036101000a031916815260200191505b5092505050602060405180830381600087803b158015610de257600080fd5b505af1158015610df6573d6000803e3d6000fd5b505050506040513d6020811015610e0c57600080fd5b505192915050565b6000610e1e610aa5565b60408051808201909152601481527f494e49545f4e4f545f494e495449414c495a45440000000000000000000000006020820152901515610ebb576040517f08c379a0000000000000000000000000000000000000000000000000000000008152600401808060200182810382528381815181526020019150805190602001908083836000838110156108af578181015183820152602001610897565b505060008281526008602090815260409182902060048101548351606081018552602b81527f434f4e56494354494f4e5f564f54494e475f50524f504f53414c5f414c524541938101939093527f44595f4558454355544544000000000000000000000000000000000000000000938301939093529168010000000000000000900460ff1615610fa7576040517f08c379a0000000000000000000000000000000000000000000000000000000008152600401808060200182810382528381815181526020019150805190602001908083836000838110156108af578181015183820152602001610897565b506004810180547fffffffffffffffffffffffffffffffffffffffffffffff00ffffffffffffffff16680100000000000000001790556002810154610fed908490612f86565b8054610ff890611795565b816003015411606060405190810160405280603981526020017f434f4e56494354494f4e5f564f54494e475f4552524f525f494e53554646494381526020017f49454e545f434f4e564943494f4e5f544f5f45584543555445000000000000008152509015156110c4576040517f08c379a0000000000000000000000000000000000000000000000000000000008152600401808060200182810382528381815181526020019150805190602001908083836000838110156108af578181015183820152602001610897565b50600381015460408051858152602081019290925280517ff758fc91e01b00ea6b4a6138756f7f28e021f9bf21db6dbf8c36c88eb737257a9281900390910190a160075460065460018301548354604080517fbeabacc800000000000000000000000000000000000000000000000000000000815273ffffffffffffffffffffffffffffffffffffffff94851660048201529284166024840152604483019190915251919092169163beabacc891606480830192600092919082900301818387803b15801561119257600080fd5b505af11580156111a6573d6000803e3d6000fd5b505050508180156111c65750336000908152600582016020526040812054115b156111e9573360008181526005830160205260409020546111e991859190613042565b505050565b60006111f8612657565b73ffffffffffffffffffffffffffffffffffffffff166332f0a3b56040518163ffffffff167c0100000000000000000000000000000000000000000000000000000000028152600401602060405180830381600087803b15801561125b57600080fd5b505af115801561126f573d6000803e3d6000fd5b505050506040513d602081101561128557600080fd5b5051905090565b6000805473ffffffffffffffffffffffffffffffffffffffff16331461133957604080517f08c379a000000000000000000000000000000000000000000000000000000000815260206004820152602760248201527f486f6f6b73206d7573742062652063616c6c65642066726f6d20546f6b656e2060448201527f4d616e6167657200000000000000000000000000000000000000000000000000606482015290519081900360840190fd5b6113627fe855346402235fdd185c890e68d2c4ecad599b88587635ee285bce2fda58dacb613380565b60408051808201909152601981527f5245454e5452414e43595f5245454e5452414e545f43414c4c00000000000000602082015290156113fe576040517f08c379a0000000000000000000000000000000000000000000000000000000008152600401808060200182810382528381815181526020019150805190602001908083836000838110156108af578181015183820152602001610897565b506114307fe855346402235fdd185c890e68d2c4ecad599b88587635ee285bce2fda58dacb600163ffffffff61338416565b61143b848484613388565b905061146e7fe855346402235fdd185c890e68d2c4ecad599b88587635ee285bce2fda58dacb600063ffffffff61338416565b9392505050565b61149e7fe855346402235fdd185c890e68d2c4ecad599b88587635ee285bce2fda58dacb613380565b60408051808201909152601981527f5245454e5452414e43595f5245454e5452414e545f43414c4c000000000000006020820152901561153a576040517f08c379a0000000000000000000000000000000000000000000000000000000008152600401808060200182810382528381815181526020019150805190602001908083836000838110156108af578181015183820152602001610897565b5061156c7fe855346402235fdd185c890e68d2c4ecad599b88587635ee285bce2fda58dacb600163ffffffff61338416565b60005473ffffffffffffffffffffffffffffffffffffffff161561161757604080517f08c379a000000000000000000000000000000000000000000000000000000000815260206004820152602860248201527f486f6f6b20616c7265616479207265676973746572656420627920546f6b656e60448201527f204d616e61676572000000000000000000000000000000000000000000000000606482015290519081900360840190fd5b600080547fffffffffffffffffffffffff0000000000000000000000000000000000000000163390811790915561164f9083836134a6565b6116807fe855346402235fdd185c890e68d2c4ecad599b88587635ee285bce2fda58dacb600063ffffffff61338416565b5050565b60065473ffffffffffffffffffffffffffffffffffffffff1681565b6116a8610aa5565b60408051808201909152601481527f494e49545f4e4f545f494e495449414c495a45440000000000000000000000006020820152901515611745576040517f08c379a0000000000000000000000000000000000000000000000000000000008152600401808060200182810382528381815181526020019150805190602001908083836000838110156108af578181015183820152602001610897565b50600081815260086020908152604080832033808552600590910190925290912054610d0591839190613042565b60055473ffffffffffffffffffffffffffffffffffffffff1681565b60015481565b600754600654604080517fe3d670d700000000000000000000000000000000000000000000000000000000815273ffffffffffffffffffffffffffffffffffffffff92831660048201529051600093849384938493919092169163e3d670d791602480830192602092919082900301818787803b15801561181557600080fd5b505af1158015611829573d6000803e3d6000fd5b505050506040513d602081101561183f57600080fd5b50519250611856856298968063ffffffff61358d16565b600354611869908563ffffffff61358d16565b11606060405190810160405280602d81526020017f434f4e56494354494f4e5f564f54494e475f4552524f525f414d4f554e545f4f81526020017f5645525f4d41585f524154494f00000000000000000000000000000000000000815250901515611930576040517f08c379a0000000000000000000000000000000000000000000000000000000008152600401808060200182810382528381815181526020019150805190602001908083836000838110156108af578181015183820152602001610897565b50600560009054906101000a900473ffffffffffffffffffffffffffffffffffffffff1673ffffffffffffffffffffffffffffffffffffffff166318160ddd6040518163ffffffff167c0100000000000000000000000000000000000000000000000000000000028152600401602060405180830381600087803b1580156119b757600080fd5b505af11580156119cb573d6000803e3d6000fd5b505050506040513d60208110156119e157600080fd5b50519150611a30611a036801000000000000000087028563ffffffff61365b16565b600354611a249068010000000000000000026298968063ffffffff61365b16565b9063ffffffff61371216565b90506040611ab783611aab611a536001546298968061371290919063ffffffff16565b611a9f62989680611aab6040611a6f8a8063ffffffff61358d16565b6002805492900a900490611a9f90700100000000000000000000000000000000026298968063ffffffff61365b16565b9063ffffffff61365b16565b9063ffffffff61358d16565b9060020a90049350505050919050565b611acf610aa5565b60408051808201909152601481527f494e49545f4e4f545f494e495449414c495a45440000000000000000000000006020820152901515611b6c576040517f08c379a0000000000000000000000000000000000000000000000000000000008152600401808060200182810382528381815181526020019150805190602001908083836000838110156108af578181015183820152602001610897565b50611680828233613042565b73ffffffffffffffffffffffffffffffffffffffff1660009081526009602052604090205490565b611ba8611d07565b60408051808201909152601881527f494e49545f414c52454144595f494e495449414c495a4544000000000000000060208201529015611c44576040517f08c379a0000000000000000000000000000000000000000000000000000000008152600401808060200182810382528381815181526020019150805190602001908083836000838110156108af578181015183820152602001610897565b50600160048190556005805473ffffffffffffffffffffffffffffffffffffffff808a167fffffffffffffffffffffffff00000000000000000000000000000000000000009283161790925560068054888416908316179055600780549289169290911691909117905583905560038290556002819055611cc36137bd565b505050505050565b60035481565b50600190565b6000611d027fd625496217aa6a3453eecb9c3489dc5a53e6c67b444329ea2b2cbc9ff547639b613380565b905090565b6000611d027febb05b386a8d34882b8711d156f463690983dc47815980fb82aeeff1aa43579e613380565b6000806000611d4084611cd1565b60408051808201909152601281527f5245434f5645525f444953414c4c4f57454400000000000000000000000000006020820152901515611ddd576040517f08c379a0000000000000000000000000000000000000000000000000000000008152600401808060200182810382528381815181526020019150805190602001908083836000838110156108af578181015183820152602001610897565b50611de66111ee565b9250611df1836138a0565b60408051808201909152601a81527f5245434f5645525f5641554c545f4e4f545f434f4e54524143540000000000006020820152901515611e8e576040517f08c379a0000000000000000000000000000000000000000000000000000000008152600401808060200182810382528381815181526020019150805190602001908083836000838110156108af578181015183820152602001610897565b5073ffffffffffffffffffffffffffffffffffffffff84161515611ef9576040513031925073ffffffffffffffffffffffffffffffffffffffff84169083156108fc029084906000818181858888f19350505050158015611ef3573d6000803e3d6000fd5b50611fe9565b5082611f2173ffffffffffffffffffffffffffffffffffffffff82163063ffffffff6138da16565b9150611f4a73ffffffffffffffffffffffffffffffffffffffff8216848463ffffffff613a1316565b60408051808201909152601d81527f5245434f5645525f544f4b454e5f5452414e534645525f4641494c45440000006020820152901515611fe7576040517f08c379a0000000000000000000000000000000000000000000000000000000008152600401808060200182810382528381815181526020019150805190602001908083836000838110156108af578181015183820152602001610897565b505b8373ffffffffffffffffffffffffffffffffffffffff168373ffffffffffffffffffffffffffffffffffffffff167f596caf56044b55fb8c4ca640089bbc2b63cae3e978b851f5745cbb7c5b288e02846040518082815260200191505060405180910390a350505050565b60008061205f610aa5565b151561206e57600091506121dc565b612076612657565b905073ffffffffffffffffffffffffffffffffffffffff8116151561209e57600091506121dc565b8073ffffffffffffffffffffffffffffffffffffffff1663fdef91068630876120c688613aab565b6040517c010000000000000000000000000000000000000000000000000000000063ffffffff871602815273ffffffffffffffffffffffffffffffffffffffff808616600483019081529085166024830152604482018490526080606483019081528351608484015283519192909160a490910190602085019080838360005b8381101561215e578181015183820152602001612146565b50505050905090810190601f16801561218b5780820380516001836020036101000a031916815260200191505b5095505050505050602060405180830381600087803b1580156121ad57600080fd5b505af11580156121c1573d6000803e3d6000fd5b505050506040513d60208110156121d757600080fd5b505191505b509392505050565b60025481565b6000806121f5612657565b604080517fbe00bbd80000000000000000000000000000000000000000000000000000000081527fd6f028ca0e8edb4a8c9757ca4fdccab25fa1e0317da1188108f7d2dee14902fb60048201527fddbcfd564f642ab5627cf68b9b7d374fb4f8a36e941a75d89c87998cef03bd616024820152905173ffffffffffffffffffffffffffffffffffffffff929092169163be00bbd8916044808201926020929091908290030181600087803b158015610de257600080fd5b60006122b6611d07565b60408051808201909152601881527f494e49545f414c52454144595f494e495449414c495a4544000000000000000060208201529015612352576040517f08c379a0000000000000000000000000000000000000000000000000000000008152600401808060200182810382528381815181526020019150805190602001908083836000838110156108af578181015183820152602001610897565b5061236e62989680611a9f6002850a600563ffffffff61358d16565b9050611cc3868686868686611ba0565b600080600061238b611d07565b60408051808201909152601881527f494e49545f414c52454144595f494e495449414c495a4544000000000000000060208201529015612427576040517f08c379a0000000000000000000000000000000000000000000000000000000008152600401808060200182810382528381815181526020019150805190602001908083836000838110156108af578181015183820152602001610897565b50629894ef9250621e84809150614e209050611cc3868686868686611ba0565b60005473ffffffffffffffffffffffffffffffffffffffff1633146124f357604080517f08c379a000000000000000000000000000000000000000000000000000000000815260206004820152602760248201527f486f6f6b73206d7573742062652063616c6c65642066726f6d20546f6b656e2060448201527f4d616e6167657200000000000000000000000000000000000000000000000000606482015290519081900360840190fd5b61251c7fe855346402235fdd185c890e68d2c4ecad599b88587635ee285bce2fda58dacb613380565b60408051808201909152601981527f5245454e5452414e43595f5245454e5452414e545f43414c4c00000000000000602082015290156125b8576040517f08c379a0000000000000000000000000000000000000000000000000000000008152600401808060200182810382528381815181526020019150805190602001908083836000838110156108af578181015183820152602001610897565b506125ea7fe855346402235fdd185c890e68d2c4ecad599b88587635ee285bce2fda58dacb600163ffffffff61338416565b61164f3383836111e9565b60009081526008602052604090208054600182015460028301546003840154600490940154929473ffffffffffffffffffffffffffffffffffffffff909216939092909167ffffffffffffffff82169168010000000000000000900460ff1690565b6000611d027f4172f0f7d2289153072b0a6ca36959e0cbe2efc3afe50fc81636caa96338137b613380565b6000805473ffffffffffffffffffffffffffffffffffffffff16331461272f57604080517f08c379a000000000000000000000000000000000000000000000000000000000815260206004820152602760248201527f486f6f6b73206d7573742062652063616c6c65642066726f6d20546f6b656e2060448201527f4d616e6167657200000000000000000000000000000000000000000000000000606482015290519081900360840190fd5b6127587fe855346402235fdd185c890e68d2c4ecad599b88587635ee285bce2fda58dacb613380565b60408051808201909152601981527f5245454e5452414e43595f5245454e5452414e545f43414c4c00000000000000602082015290156127f4576040517f08c379a0000000000000000000000000000000000000000000000000000000008152600401808060200182810382528381815181526020019150805190602001908083836000838110156108af578181015183820152602001610897565b506128267fe855346402235fdd185c890e68d2c4ecad599b88587635ee285bce2fda58dacb600163ffffffff61338416565b61143b848484613ab5565b60015460009067ffffffffffffffff85169082906128759061286f90700100000000000000000000000000000000026298968063ffffffff61365b16565b83613abe565b905060806128f16f800000000000000000000000000000006128e56128d56001546298968003611a9f6128c28870010000000000000000000000000000000061371290919063ffffffff16565b611aab8c6298968063ffffffff61358d16565b6128e5868b63ffffffff61358d16565b9063ffffffff613bbf16565b9060020a9004925050509392505050565b60007fffffffffffffffffffffffffffffffffffffffffffffffffffffffffffffffff61292d611d07565b14905090565b600082815260086020908152604080832073ffffffffffffffffffffffffffffffffffffffff8516845260050190915290205492915050565b604080517f4352454154455f50524f504f53414c535f524f4c4500000000000000000000008152905190819003601501902081565b60075473ffffffffffffffffffffffffffffffffffffffff1681565b6129c5610aa5565b60408051808201909152601481527f494e49545f4e4f545f494e495449414c495a45440000000000000000000000006020820152901515612a62576040517f08c379a0000000000000000000000000000000000000000000000000000000008152600401808060200182810382528381815181526020019150805190602001908083836000838110156108af578181015183820152602001610897565b50611680828233612a72565b4390565b6000806000808511606060405190810160405280602e81526020017f434f4e56494354494f4e5f564f54494e475f4552524f525f414d4f554e545f4381526020017f414e5f4e4f545f42455f5a45524f000000000000000000000000000000000000815250901515612b40576040517f08c379a0000000000000000000000000000000000000000000000000000000008152600401808060200182810382528381815181526020019150805190602001908083836000838110156108af578181015183820152602001610897565b5073ffffffffffffffffffffffffffffffffffffffff80851660008181526009602090815260408083205460055482517f70a0823100000000000000000000000000000000000000000000000000000000815260048101969096529151612c0696919592909116936370a0823193602480850194919392918390030190829087803b158015612bce57600080fd5b505af1158015612be2573d6000803e3d6000fd5b505050506040513d6020811015612bf857600080fd5b50519063ffffffff61371216565b925082851115612c2b57612c2b612c23868563ffffffff61371216565b856001613c64565b600554604080517f70a0823100000000000000000000000000000000000000000000000000000000815273ffffffffffffffffffffffffffffffffffffffff8781166004830152915191909216916370a082319160248083019260209291908290030181600087803b158015612ca057600080fd5b505af1158015612cb4573d6000803e3d6000fd5b505050506040513d6020811015612cca57600080fd5b505173ffffffffffffffffffffffffffffffffffffffff8516600090815260096020526040902054612d02908763ffffffff613bbf16565b1115606060405190810160405280602881526020017f434f4e56494354494f4e5f564f54494e475f5354414b45445f4d4f52455f544881526020017f414e5f4f574e4544000000000000000000000000000000000000000000000000815250901515612dca576040517f08c379a0000000000000000000000000000000000000000000000000000000008152600401808060200182810382528381815181526020019150805190602001908083836000838110156108af578181015183820152602001610897565b50505060008481526008602052604090206002810154612df0818663ffffffff613bbf16565b600283015573ffffffffffffffffffffffffffffffffffffffff84166000908152600583016020526040902054612e2d908663ffffffff613bbf16565b73ffffffffffffffffffffffffffffffffffffffff85166000908152600584016020908152604080832093909355600990522054612e71908663ffffffff613bbf16565b73ffffffffffffffffffffffffffffffffffffffff8516600090815260096020526040902055600482015467ffffffffffffffff161515612ef057612eb4613dac565b6004830180547fffffffffffffffffffffffffffffffffffffffffffffffff00000000000000001667ffffffffffffffff929092169190911790555b612efa8682612f86565b73ffffffffffffffffffffffffffffffffffffffff84166000818152600584016020908152604091829020546002860154600387015484519586529285018b90528484018a90526060850191909152608084015260a0830152517f28d9b583e0c477691a08f6c1e00fedc0895ed4221487c627fa96a7024119f4999181900360c00190a1505050505050565b60008281526008602052604081209080612f9e613dac565b600484015490925067ffffffffffffffff80841691161115612fbc57fe5b600483015467ffffffffffffffff83811691161415612fda5761303b565b60048301546003840154612ffb9167ffffffffffffffff1684039086612831565b6004840180547fffffffffffffffffffffffffffffffffffffffffffffffff00000000000000001667ffffffffffffffff85161790556003840181905590505b5050505050565b600083815260086020908152604080832073ffffffffffffffffffffffffffffffffffffffff851684526005018252808320548151606081018352602d81527f434f4e56494354494f4e5f564f54494e475f574954484452415745445f4d4f52938101939093527f455f5448414e5f5354414b4544000000000000000000000000000000000000009183019190915282919085111561313d576040517f08c379a0000000000000000000000000000000000000000000000000000000008152600401808060200182810382528381815181526020019150805190602001908083836000838110156108af578181015183820152602001610897565b5060408051606081018252602e81527f434f4e56494354494f4e5f564f54494e475f4552524f525f414d4f554e545f4360208201527f414e5f4e4f545f42455f5a45524f0000000000000000000000000000000000009181019190915260008511613204576040517f08c379a0000000000000000000000000000000000000000000000000000000008152600401808060200182810382528381815181526020019150805190602001908083836000838110156108af578181015183820152602001610897565b5050506000838152600860205260409020600281015461322a818563ffffffff61371216565b600283015573ffffffffffffffffffffffffffffffffffffffff83166000908152600583016020526040902054613267908563ffffffff61371216565b73ffffffffffffffffffffffffffffffffffffffff841660009081526005840160209081526040808320939093556009905220546132ab908563ffffffff61371216565b73ffffffffffffffffffffffffffffffffffffffff8416600090815260096020526040902055600482015468010000000000000000900460ff1615156132f5576132f58582612f86565b73ffffffffffffffffffffffffffffffffffffffff83166000818152600584016020908152604091829020546002860154600387015484519586529285018a90528484018990526060850191909152608084015260a0830152517f16f23283da3097bc9027dcdf31f24863b1520556f04818d406f0e6ecd08580f59181900360c00190a15050505050565b5490565b9055565b60008073ffffffffffffffffffffffffffffffffffffffff851615156133b157600191506121dc565b600554604080517f70a0823100000000000000000000000000000000000000000000000000000000815273ffffffffffffffffffffffffffffffffffffffff8881166004830152915161342993879316916370a082319160248083019260209291908290030181600087803b158015612bce57600080fd5b73ffffffffffffffffffffffffffffffffffffffff861660009081526009602052604090205490915081101561349b5773ffffffffffffffffffffffffffffffffffffffff851660009081526009602052604090205461349b90613493908363ffffffff61371216565b866000613c64565b506001949350505050565b60055460408051606081018252603481527f434f4e56494354494f4e5f564f54494e475f4552524f525f494e434f5252454360208201527f545f544f4b454e5f4d414e414745525f484f4f4b000000000000000000000000918101919091529073ffffffffffffffffffffffffffffffffffffffff838116911614613587576040517f08c379a0000000000000000000000000000000000000000000000000000000008152600401808060200182810382528381815181526020019150805190602001908083836000838110156108af578181015183820152602001610897565b50505050565b6000808315156135a05760009150613654565b508282028284828115156135b057fe5b60408051808201909152601181527f4d4154485f4d554c5f4f564552464c4f570000000000000000000000000000006020820152929190041461364f576040517f08c379a0000000000000000000000000000000000000000000000000000000008152600401808060200182810382528381815181526020019150805190602001908083836000838110156108af578181015183820152602001610897565b508091505b5092915050565b60408051808201909152600d81527f4d4154485f4449565f5a45524f00000000000000000000000000000000000000602082015260009081908184116136fd576040517f08c379a0000000000000000000000000000000000000000000000000000000008152600401808060200182810382528381815181526020019150805190602001908083836000838110156108af578181015183820152602001610897565b50828481151561370957fe5b04949350505050565b60408051808201909152601281527f4d4154485f5355425f554e444552464c4f57000000000000000000000000000060208201526000908190848411156137b5576040517f08c379a0000000000000000000000000000000000000000000000000000000008152600401808060200182810382528381815181526020019150805190602001908083836000838110156108af578181015183820152602001610897565b505050900390565b6137c5611d07565b60408051808201909152601881527f494e49545f414c52454144595f494e495449414c495a4544000000000000000060208201529015613861576040517f08c379a0000000000000000000000000000000000000000000000000000000008152600401808060200182810382528381815181526020019150805190602001908083836000838110156108af578181015183820152602001610897565b5061389a61386d612a6e565b7febb05b386a8d34882b8711d156f463690983dc47815980fb82aeeff1aa43579e9063ffffffff61338416565b565b5490565b60008073ffffffffffffffffffffffffffffffffffffffff831615156138c957600091506138d4565b823b90506000811191505b50919050565b6040805173ffffffffffffffffffffffffffffffffffffffff83166024808301919091528251808303909101815260449091019091526020810180517bffffffffffffffffffffffffffffffffffffffffffffffffffffffff167f70a082310000000000000000000000000000000000000000000000000000000017905260009081806139678684613dc2565b60408051808201909152601c81527f534146455f4552435f32305f42414c414e43455f52455645525445440000000060208201529193509150821515613a09576040517f08c379a0000000000000000000000000000000000000000000000000000000008152600401808060200182810382528381815181526020019150805190602001908083836000838110156108af578181015183820152602001610897565b5095945050505050565b6040805173ffffffffffffffffffffffffffffffffffffffff8416602482015260448082018490528251808303909101815260649091019091526020810180517bffffffffffffffffffffffffffffffffffffffffffffffffffffffff167fa9059cbb00000000000000000000000000000000000000000000000000000000179052600090613aa28582613df3565b95945050505050565b8051602002815290565b60019392505050565b600080807001000000000000000000000000000000008510613b4157604080517f08c379a000000000000000000000000000000000000000000000000000000000815260206004820152601c60248201527f5f612073686f756c64206265206c657373207468616e20325e31323800000000604482015290519081900360640190fd5b507001000000000000000000000000000000009150839050825b6000811115613bb757600181161515613b8357613b788283613e41565b915060029004613bb2565b613b8d8383613e41565b92507fffffffffffffffffffffffffffffffffffffffffffffffffffffffffffffffff015b613b5b565b505092915050565b60408051808201909152601181527f4d4154485f4144445f4f564552464c4f570000000000000000000000000000006020820152600090838301908482101561364f576040517f08c379a0000000000000000000000000000000000000000000000000000000008152600401808060200182810382528381815181526020019150805190602001908083836000838110156108af578181015183820152602001610897565b600080805b60045483108015613c7957508582105b15613d095760008381526008602052604090206004015468010000000000000000900460ff1615613cfe5750600082815260086020908152604080832073ffffffffffffffffffffffffffffffffffffffff8816845260050190915281205490811115613cfe57613ceb838287613042565b613cfb828263ffffffff613bbf16565b91505b600190920191613c69565b600092505b83158015613d1d575060045483105b8015613d2857508582105b15611cc357613d78613d40878463ffffffff61371216565b600085815260086020908152604080832073ffffffffffffffffffffffffffffffffffffffff8b168452600501909152902054613f9c565b90506000811115613da157613d8e838287613042565b613d9e828263ffffffff613bbf16565b91505b600190920191613d0e565b6000611d02613db9612a6e565b613fb2565b9055565b6000806000806040516020818751602089018a5afa92506000831115613de757805191505b50909590945092505050565b6000806040516020818551602087016000895af16000811115613e37573d8015613e245760208114613e2d57613e35565b60019350613e35565b600183511493505b505b5090949350505050565b6000700100000000000000000000000000000000831115613ee957604080517f08c379a000000000000000000000000000000000000000000000000000000000815260206004820152602860248201527f5f612073686f756c64206265206c657373207468616e206f7220657175616c2060448201527f746f20325e313238000000000000000000000000000000000000000000000000606482015290519081900360840190fd5b7001000000000000000000000000000000008210613f6857604080517f08c379a000000000000000000000000000000000000000000000000000000000815260206004820152601c60248201527f5f622073686f756c64206265206c657373207468616e20325e31323800000000604482015290519081900360640190fd5b6080613f8e6f800000000000000000000000000000006128e5868663ffffffff61358d16565b9060020a9004905092915050565b6000818310613fab578161146e565b5090919050565b60408051808201909152601581527f55494e5436345f4e554d4245525f544f4f5f4249470000000000000000000000602082015260009067ffffffffffffffff831115613fab576040517f08c379a0000000000000000000000000000000000000000000000000000000008152600401808060200182810382528381815181526020019150805190602001908083836000838110156108af5781810151838201526020016108975600a165627a7a72305820e0260e67a69069d2116ba7b00dbf46cb3566af90011d15d7ebc5c27def2e9e3c0029ebb05b386a8d34882b8711d156f463690983dc47815980fb82aeeff1aa43579e",
  "source": "pragma solidity ^0.4.24;\n\nimport \"@aragon/os/contracts/apps/AragonApp.sol\";\nimport \"@aragon/apps-shared-minime/contracts/MiniMeToken.sol\";\nimport \"@aragon/apps-vault/contracts/Vault.sol\";\nimport \"@aragon/os/contracts/lib/math/SafeMath.sol\";\nimport \"@aragon/os/contracts/lib/math/SafeMath64.sol\";\nimport \"@aragon/os/contracts/lib/math/Math.sol\";\nimport \"@1hive/apps-token-manager/contracts/TokenManagerHook.sol\";\n\n\ncontract ConvictionVoting is AragonApp, TokenManagerHook {\n    using SafeMath for uint256;\n    using SafeMath64 for uint64;\n\n    // Events\n    event ProposalAdded(address entity, uint256 id, string title, bytes link, uint256 amount, address beneficiary);\n    event StakeAdded(address entity, uint256 id, uint256  amount, uint256 tokensStaked, uint256 totalTokensStaked, uint256 conviction);\n    event StakeWithdrawn(address entity, uint256 id, uint256 amount, uint256 tokensStaked, uint256 totalTokensStaked, uint256 conviction);\n    event ProposalExecuted(uint256 id, uint256 conviction);\n\n    // Constants\n    uint256 public constant D = 10000000;\n    uint256 constant TWO_128 = 0x100000000000000000000000000000000; // 2^128\n    uint256 constant TWO_127 = 0x80000000000000000000000000000000; // 2^127\n    uint256 constant TWO_64 = 0x10000000000000000; // 2^64\n\n    // State\n    uint256 public decay;\n    uint256 public weight;\n    uint256 public maxRatio;\n    uint256 public proposalCounter;\n    MiniMeToken public stakeToken;\n    address public requestToken;\n    Vault public vault;\n\n    mapping(uint256 => Proposal) internal proposals;\n    mapping(address => uint256) internal stakesPerVoter;\n\n    // Structs\n    struct Proposal {\n        uint256 requestedAmount;\n        address beneficiary;\n        uint256 stakedTokens;\n        uint256 convictionLast;\n        uint64 blockLast;\n        bool executed;\n        mapping(address => uint256) stakesPerVoter;\n    }\n\n    // ACL\n    bytes32 constant public CREATE_PROPOSALS_ROLE = keccak256(\"CREATE_PROPOSALS_ROLE\");\n\n    // Errors\n    string private constant ERROR_STAKED_MORE_THAN_OWNED = \"CONVICTION_VOTING_STAKED_MORE_THAN_OWNED\";\n    string private constant ERROR_STAKING_ALREADY_STAKED = \"CONVICTION_VOTING_STAKING_ALREADY_STAKED\";\n    string private constant ERROR_WITHDRAWED_MORE_THAN_STAKED = \"CONVICTION_VOTING_WITHDRAWED_MORE_THAN_STAKED\";\n    string private constant ERROR_PROPOSAL_ALREADY_EXECUTED = \"CONVICTION_VOTING_PROPOSAL_ALREADY_EXECUTED\";\n    string private constant ERROR_INSUFFICIENT_CONVICION_TO_EXECUTE = \"CONVICTION_VOTING_ERROR_INSUFFICIENT_CONVICION_TO_EXECUTE\";\n    string private constant ERROR_AMOUNT_CAN_NOT_BE_ZERO = \"CONVICTION_VOTING_ERROR_AMOUNT_CAN_NOT_BE_ZERO\";\n    string private constant ERROR_AMOUNT_OVER_MAX_RATIO = \"CONVICTION_VOTING_ERROR_AMOUNT_OVER_MAX_RATIO\";\n    string private constant ERROR_INCORRECT_TOKEN_MANAGER_HOOK = \"CONVICTION_VOTING_ERROR_INCORRECT_TOKEN_MANAGER_HOOK\";\n\n    function initialize(MiniMeToken _stakeToken, Vault _vault, address _requestToken) public onlyInit {\n        uint256 _decay = 9999599; // 3 days halftime. halftime_alpha = (1/2)**(1/t)\n        uint256 _maxRatio = 2000000; // 20%\n        uint256 _weight = 20000; // 0.05 * maxRatio ^ 2\n        initialize(_stakeToken, _vault, _requestToken, _decay, _maxRatio, _weight);\n    }\n\n    function initialize(MiniMeToken _stakeToken, Vault _vault, address _requestToken, uint256 _decay, uint256 _maxRatio) public onlyInit {\n        uint256 _weight = (_maxRatio**2).mul(5).div(D); // _maxRatio^2 won't overflow\n        initialize(_stakeToken, _vault, _requestToken, _decay, _maxRatio, _weight);\n    }\n\n    function initialize(\n        MiniMeToken _stakeToken,\n        Vault _vault,\n        address _requestToken,\n        uint256 _decay,\n        uint256 _maxRatio,\n        uint256 _weight\n    )\n        public onlyInit\n    {\n        proposalCounter = 1; // First proposal should be #1, not #0\n        stakeToken = _stakeToken;\n        requestToken = _requestToken;\n        vault = _vault;\n        decay = _decay;\n        maxRatio = _maxRatio;\n        weight = _weight;\n        initialized();\n    }\n\n    /**\n     * @notice Add proposal `_title` for  `@tokenAmount((self.requestToken(): address), _requestedAmount)` to `_beneficiary`\n     * @param _title Title of the proposal\n     * @param _link IPFS or HTTP link with proposal's description\n     * @param _requestedAmount Tokens requested\n     * @param _beneficiary Address that will receive payment\n     */\n    function addProposal(\n        string _title,\n        bytes _link,\n        uint256 _requestedAmount,\n        address _beneficiary\n    )\n        external isInitialized()\n    {\n        proposals[proposalCounter] = Proposal(\n            _requestedAmount,\n            _beneficiary,\n            0,\n            0,\n            0,\n            false\n        );\n        emit ProposalAdded(msg.sender, proposalCounter, _title, _link, _requestedAmount, _beneficiary);\n        proposalCounter++;\n    }\n\n    /**\n      * @notice Stake `@tokenAmount((self.stakeToken(): address), _amount)` on proposal #`_id`\n      * @param _id Proposal id\n      * @param _amount Amount of tokens staked\n      */\n    function stakeToProposal(uint256 _id, uint256 _amount) external isInitialized() {\n        _stake(_id, _amount, msg.sender);\n    }\n\n    /**\n     * @notice Stake all my `(self.stakeToken(): address).symbol(): string` tokens on proposal #`_id`\n     * @param _id Proposal id\n     */\n    function stakeAllToProposal(uint256 _id) external isInitialized() {\n        require(stakesPerVoter[msg.sender] == 0, ERROR_STAKING_ALREADY_STAKED);\n        _stake(_id, stakeToken.balanceOf(msg.sender), msg.sender);\n    }\n\n    /**\n     * @notice Withdraw `@tokenAmount((self.stakeToken(): address), _amount)` previously staked on proposal #`_id`\n     * @param _id Proposal id\n     * @param _amount Amount of tokens withdrawn\n     */\n    function withdrawFromProposal(uint256 _id, uint256 _amount) external isInitialized() {\n        _withdraw(_id, _amount, msg.sender);\n    }\n\n    /**\n     * @notice Withdraw all `(self.stakeToken(): address).symbol(): string` tokens previously staked on proposal #`_id`\n     * @param _id Proposal id\n     */\n    function withdrawAllFromProposal(uint256 _id) external isInitialized() {\n        _withdraw(_id, proposals[_id].stakesPerVoter[msg.sender], msg.sender);\n    }\n\n    /**\n     * @notice Execute proposal #`_id`\n     * @dev ...by sending `@tokenAmount((self.requestToken(): address), self.getPropoal(_id): ([uint256], address, uint256, uint256, uint64, bool))` to `self.getPropoal(_id): (uint256, [address], uint256, uint256, uint64, bool)`\n     * @param _id Proposal id\n     * @param _withdrawIfPossible True if sender's staked tokens should be withdrawed after execution\n     */\n    function executeProposal(uint256 _id, bool _withdrawIfPossible) external isInitialized() {\n        Proposal storage proposal = proposals[_id];\n        require(!proposal.executed, ERROR_PROPOSAL_ALREADY_EXECUTED);\n        proposal.executed = true;\n        _calculateAndSetConviction(_id, proposal.stakedTokens);\n        require(proposal.convictionLast > calculateThreshold(proposal.requestedAmount), ERROR_INSUFFICIENT_CONVICION_TO_EXECUTE);\n        emit ProposalExecuted(_id, proposal.convictionLast);\n        vault.transfer(requestToken, proposal.beneficiary, proposal.requestedAmount);\n        if (_withdrawIfPossible && proposal.stakesPerVoter[msg.sender] > 0) {\n            _withdraw(_id, proposal.stakesPerVoter[msg.sender], msg.sender);\n        }\n    }\n\n    /**\n     * @dev Get proposal parameters\n     * @param _id Proposal id\n     * @return Requested amount\n     * @return Beneficiary address\n     * @return Current total stake of tokens on this proposal\n     * @return Conviction this proposal had last time calculateAndSetConviction was called\n     * @return Block when calculateAndSetConviction was called\n     * @return True if proposal has already been executed\n     */\n    function getProposal(uint256 _id) public view returns (\n        uint256,\n        address,\n        uint256,\n        uint256,\n        uint64,\n        bool\n    )\n    {\n        Proposal storage proposal = proposals[_id];\n        return (\n            proposal.requestedAmount,\n            proposal.beneficiary,\n            proposal.stakedTokens,\n            proposal.convictionLast,\n            proposal.blockLast,\n            proposal.executed\n        );\n    }\n\n    /**\n     * @notice Get stake of voter `_voter` on proposal #`_id`\n     * @param _id Proposal id\n     * @param _voter Entity address that previously might voted on that proposal\n     * @return Current amount of staked tokens by voter on proposal\n     */\n    function getProposalVoterStake(uint256 _id, address _voter) public view returns (uint256) {\n        return proposals[_id].stakesPerVoter[_voter];\n    }\n\n    /**\n     * @notice Get total stake of voter `_voter` on proposals\n     * @param _voter Entity address that previously might voted on that proposal\n     * @return Current amount of staked tokens by voter on proposal\n     */\n    function getProposalVoterStake(address _voter) public view returns (uint256) {\n        return stakesPerVoter[_voter];\n    }\n\n    /**\n     * @dev Conviction formula: a^t * y(0) + x * (1 - a^t) / (1 - a)\n     * Solidity implementation: y = (2^128 * a^t * y0 + x * D * (2^128 - 2^128 * a^t) / (D - aD) + 2^127) / 2^128\n     * @param _timePassed Number of blocks since last conviction record\n     * @param _lastConv Last conviction record\n     * @param _oldAmount Amount of tokens staked until now\n     * @return Current conviction\n     */\n    function calculateConviction(\n        uint64 _timePassed,\n        uint256 _lastConv,\n        uint256 _oldAmount\n    )\n        public view returns(uint256)\n    {\n        uint256 t = uint256(_timePassed);\n        // atTWO_128 = 2^128 * a^t\n        uint256 atTWO_128 = _pow((decay << 128).div(D), t);\n        // solium-disable-previous-line\n        // conviction = (atTWO_128 * _lastConv + _oldAmount * D * (2^128 - atTWO_128) / (D - aD) + 2^127) / 2^128\n        return (atTWO_128.mul(_lastConv).add(_oldAmount.mul(D).mul(TWO_128.sub(atTWO_128)).div(D - decay))).add(TWO_127) >> 128;\n    }\n\n    /**\n     * @dev Formula:  * supply / (1 - a) / ( - requestedAmount / total)**2\n     * For the Solidity implementation we amplify  and  and simplify the formula:\n     * weight =  * D\n     * maxRatio =  * D\n     * decay = a * D\n     * threshold = weight * supply * D ** 2 * funds ** 2 / (D - decay) / (maxRatio * funds - requestedAmount * D) ** 2\n     * @param _requestedAmount Requested amount of tokens on certain proposal\n     * @return Threshold a proposal's conviction should surpass in order to be able to\n     * executed it.\n     */\n    function calculateThreshold(uint256 _requestedAmount) public view returns (uint256 _threshold) {\n        uint256 funds = vault.balance(requestToken);\n        require(maxRatio.mul(funds) > _requestedAmount.mul(D), ERROR_AMOUNT_OVER_MAX_RATIO);\n        uint256 supply = stakeToken.totalSupply();\n        // denom = maxRatio * 2 ** 64 / D  - requestedAmount * 2 ** 64 / funds\n        uint256 denom = (maxRatio << 64).div(D).sub((_requestedAmount << 64).div(funds));\n        // _threshold = (weight * 2 ** 128 / D) / (denom ** 2 / 2 ** 64) * supply * D / 2 ** 128\n        _threshold = ((weight << 128).div(D).div(denom.mul(denom) >> 64)).mul(D).div(D.sub(decay)).mul(supply) >> 64;\n    }\n\n    /**\n     * Multiply _a by _b / 2^128.  Parameter _a should be less than or equal to\n     * 2^128 and parameter _b should be less than 2^128.\n     * @param _a left argument\n     * @param _b right argument\n     * @return _a * _b / 2^128\n     */\n    function _mul(uint256 _a, uint256 _b) internal pure returns (uint256 _result) {\n        require(_a <= TWO_128, \"_a should be less than or equal to 2^128\");\n        require(_b < TWO_128, \"_b should be less than 2^128\");\n        return _a.mul(_b).add(TWO_127) >> 128;\n    }\n\n    /**\n     * Calculate (_a / 2^128)^_b * 2^128.  Parameter _a should be less than 2^128.\n     *\n     * @param _a left argument\n     * @param _b right argument\n     * @return (_a / 2^128)^_b * 2^128\n     */\n    function _pow(uint256 _a, uint256 _b) internal pure returns (uint256 _result) {\n        require(_a < TWO_128, \"_a should be less than 2^128\");\n        uint256 a = _a;\n        uint256 b = _b;\n        _result = TWO_128;\n        while (b > 0) {\n            if (b & 1 == 0) {\n                a = _mul(a, a);\n                b >>= 1;\n            } else {\n                _result = _mul(_result, a);\n                b -= 1;\n            }\n        }\n    }\n\n    /**\n     * @dev Calculate conviction and store it on the proposal\n     * @param _id Proposal id\n     * @param _oldStaked Amount of tokens staked on a proposal until now\n     */\n    function _calculateAndSetConviction(uint256 _id, uint256 _oldStaked) internal {\n        Proposal storage proposal = proposals[_id];\n        uint64 blockNumber = getBlockNumber64();\n        assert(proposal.blockLast <= blockNumber);\n        if (proposal.blockLast == blockNumber) {\n            return; // Conviction already stored\n        }\n        // calculateConviction and store it\n        uint256 conviction = calculateConviction(\n            blockNumber - proposal.blockLast, // we assert it doesn't overflow above\n            proposal.convictionLast,\n            _oldStaked\n        );\n        proposal.blockLast = blockNumber;\n        proposal.convictionLast = conviction;\n    }\n\n    /**\n     * @dev Stake an amount of tokens on a proposal\n     * @param _id Proposal id\n     * @param _amount Amount of staked tokens\n     * @param _from Account from which we stake\n     */\n    function _stake(uint256 _id, uint256 _amount, address _from) internal {\n        require(_amount > 0, ERROR_AMOUNT_CAN_NOT_BE_ZERO);\n        uint256 unstaked = stakeToken.balanceOf(_from).sub(stakesPerVoter[_from]);\n        if (_amount > unstaked) {\n            _withdrawUnstakedTokens(_amount.sub(unstaked), _from, true);\n        }\n        // make sure user does not stake more than she has\n        require(stakesPerVoter[_from].add(_amount) <= stakeToken.balanceOf(_from), ERROR_STAKED_MORE_THAN_OWNED);\n        Proposal storage proposal = proposals[_id];\n        uint256 oldStaked = proposal.stakedTokens;\n        proposal.stakedTokens = proposal.stakedTokens.add(_amount);\n        proposal.stakesPerVoter[_from] = proposal.stakesPerVoter[_from].add(_amount);\n        stakesPerVoter[_from] = stakesPerVoter[_from].add(_amount);\n        if (proposal.blockLast == 0) {\n            proposal.blockLast = getBlockNumber64();\n        }\n        _calculateAndSetConviction(_id, oldStaked);\n        emit StakeAdded(_from, _id, _amount, proposal.stakesPerVoter[_from], proposal.stakedTokens, proposal.convictionLast);\n    }\n\n    /**\n     * @dev Withdraw staked tokens from proposals until a target amount is reached.\n     * @param _targetAmount Amount of withdrawn tokens\n     * @param _from Account to withdraw from\n     * @param _onlyExecuted Withdraw only from executed proposals\n     */\n    function _withdrawUnstakedTokens(uint256 _targetAmount, address _from, bool _onlyExecuted) internal {\n        uint i = 0;\n        uint256 amount = 0;\n        uint256 toSubstract;\n        while (i < proposalCounter && amount < _targetAmount) {\n            if (proposals[i].executed) {\n                toSubstract = proposals[i].stakesPerVoter[_from];\n                if (toSubstract > 0) {\n                    _withdraw(i, toSubstract, _from);\n                    amount = amount.add(toSubstract);\n                }\n            }\n            i++;\n        }\n        i = 0;\n        while (!_onlyExecuted && i < proposalCounter && amount < _targetAmount) {\n            // In open proposals, we only substract the needed amount to reach the target\n            toSubstract = Math.min256(_targetAmount.sub(amount), proposals[i].stakesPerVoter[_from]);\n            if (toSubstract > 0) {\n                _withdraw(i, toSubstract, _from);\n                amount = amount.add(toSubstract);\n            }\n            i++;\n        }\n    }\n\n    /**\n     * @dev Withdraw an amount of tokens from a proposal\n     * @param _id Proposal id\n     * @param _amount Amount of withdrawn tokens\n     * @param _from Account to withdraw from\n     */\n    function _withdraw(uint256 _id, uint256 _amount, address _from) internal {\n        // make sure voter does not withdraw more than staked on proposal\n        require(proposals[_id].stakesPerVoter[_from] >= _amount, ERROR_WITHDRAWED_MORE_THAN_STAKED);\n        require(_amount > 0, ERROR_AMOUNT_CAN_NOT_BE_ZERO);\n\n        Proposal storage proposal = proposals[_id];\n        uint256 oldStaked = proposal.stakedTokens;\n        proposal.stakedTokens = proposal.stakedTokens.sub(_amount);\n        proposal.stakesPerVoter[_from] = proposal.stakesPerVoter[_from].sub(_amount);\n        stakesPerVoter[_from] = stakesPerVoter[_from].sub(_amount);\n        if (!proposal.executed) {\n            _calculateAndSetConviction(_id, oldStaked);\n        }\n        emit StakeWithdrawn(_from, _id, _amount, proposal.stakesPerVoter[_from], proposal.stakedTokens, proposal.convictionLast);\n    }\n\n    /**\n     * @dev Overrides TokenManagerHook's `_onRegisterAsHook`\n     */\n    function _onRegisterAsHook(address _tokenManager, uint256 _hookId, address _token) internal {\n        require(_token == address(stakeToken), ERROR_INCORRECT_TOKEN_MANAGER_HOOK);\n    }\n\n    /**\n     * @dev Overrides TokenManagerHook's `_onTransfer`\n     */\n    function _onTransfer(address _from, address _to, uint256 _amount) internal returns (bool) {\n        if (_from == 0x0) {\n            return true; // Do nothing on token mintings\n        }\n        uint256 newBalance = stakeToken.balanceOf(_from).sub(_amount);\n        if (newBalance < stakesPerVoter[_from]) {\n            _withdrawUnstakedTokens(stakesPerVoter[_from].sub(newBalance), _from, false);\n        }\n        return true;\n    }\n}\n",
  "sourcePath": "/Users/fabri/Documents/work/aragon/1hive/conviction-voting-app/contracts/ConvictionVoting.sol",
  "compiler": {
    "name": "solc",
    "version": "0.4.24+commit.e67f0147.Emscripten.clang"
  },
  "schemaVersion": "3.0.19",
  "updatedAt": "2020-06-09T19:31:15.894Z",
  "devdoc": {
    "methods": {
      "addProposal(string,bytes,uint256,address)": {
        "params": {
          "_beneficiary": "Address that will receive payment",
          "_link": "IPFS or HTTP link with proposal's description",
          "_requestedAmount": "Tokens requested",
          "_title": "Title of the proposal"
        }
      },
      "allowRecoverability(address)": {
        "details": "By default deriving from AragonApp makes it recoverable",
        "params": {
          "token": "Token address that would be recovered"
        },
        "return": "bool whether the app allows the recovery"
      },
      "calculateConviction(uint64,uint256,uint256)": {
        "details": "Conviction formula: a^t * y(0) + x * (1 - a^t) / (1 - a) Solidity implementation: y = (2^128 * a^t * y0 + x * D * (2^128 - 2^128 * a^t) / (D - aD) + 2^127) / 2^128",
        "params": {
          "_lastConv": "Last conviction record",
          "_oldAmount": "Amount of tokens staked until now",
          "_timePassed": "Number of blocks since last conviction record"
        },
        "return": "Current conviction"
      },
      "calculateThreshold(uint256)": {
        "details": "Formula:  * supply / (1 - a) / ( - requestedAmount / total)**2 For the Solidity implementation we amplify  and  and simplify the formula: weight =  * D maxRatio =  * D decay = a * D threshold = weight * supply * D ** 2 * funds ** 2 / (D - decay) / (maxRatio * funds - requestedAmount * D) ** 2",
        "params": {
          "_requestedAmount": "Requested amount of tokens on certain proposal"
        },
        "return": "Threshold a proposal's conviction should surpass in order to be able to executed it."
      },
      "canPerform(address,bytes32,uint256[])": {
        "details": "Check whether an action can be performed by a sender for a particular role on this app",
        "params": {
          "_params": "Permission params for the role",
          "_role": "Role on this app",
          "_sender": "Sender of the call"
        },
        "return": "Boolean indicating whether the sender has the permissions to perform the action.        Always returns false if the app hasn't been initialized yet."
      },
      "executeProposal(uint256,bool)": {
        "details": "...by sending `@tokenAmount((self.requestToken(): address), self.getPropoal(_id): ([uint256], address, uint256, uint256, uint64, bool))` to `self.getPropoal(_id): (uint256, [address], uint256, uint256, uint64, bool)`",
        "params": {
          "_id": "Proposal id",
          "_withdrawIfPossible": "True if sender's staked tokens should be withdrawed after execution"
        }
      },
      "getInitializationBlock()": {
        "return": "Block number in which the contract was initialized"
      },
      "getProposal(uint256)": {
        "details": "Get proposal parameters",
        "params": {
          "_id": "Proposal id"
        },
        "return": "Requested amountBeneficiary addressCurrent total stake of tokens on this proposalConviction this proposal had last time calculateAndSetConviction was calledBlock when calculateAndSetConviction was calledTrue if proposal has already been executed"
      },
      "getProposalVoterStake(address)": {
        "params": {
          "_voter": "Entity address that previously might voted on that proposal"
        },
        "return": "Current amount of staked tokens by voter on proposal"
      },
      "getProposalVoterStake(uint256,address)": {
        "params": {
          "_id": "Proposal id",
          "_voter": "Entity address that previously might voted on that proposal"
        },
        "return": "Current amount of staked tokens by voter on proposal"
      },
      "getRecoveryVault()": {
        "details": "Get the recovery vault for the app",
        "return": "Recovery vault address for the app"
      },
      "hasInitialized()": {
        "return": "Whether the contract has been initialized by the time of the current block"
      },
      "stakeAllToProposal(uint256)": {
        "params": {
          "_id": "Proposal id"
        }
      },
      "stakeToProposal(uint256,uint256)": {
        "params": {
          "_amount": "Amount of tokens staked",
          "_id": "Proposal id"
        }
      },
      "transferToVault(address)": {
        "params": {
          "_token": "Token balance to be sent to recovery vault."
        }
      },
      "withdrawAllFromProposal(uint256)": {
        "params": {
          "_id": "Proposal id"
        }
      },
      "withdrawFromProposal(uint256,uint256)": {
        "params": {
          "_amount": "Amount of tokens withdrawn",
          "_id": "Proposal id"
        }
      }
    }
  },
  "userdoc": {
    "methods": {
      "addProposal(string,bytes,uint256,address)": {
        "notice": "Add proposal `_title` for  `@tokenAmount((self.requestToken(): address), _requestedAmount)` to `_beneficiary`"
      },
      "executeProposal(uint256,bool)": {
        "notice": "Execute proposal #`_id`"
      },
      "getProposalVoterStake(address)": {
        "notice": "Get total stake of voter `_voter` on proposals"
      },
      "getProposalVoterStake(uint256,address)": {
        "notice": "Get stake of voter `_voter` on proposal #`_id`"
      },
      "stakeAllToProposal(uint256)": {
        "notice": "Stake all my `(self.stakeToken(): address).symbol(): string` tokens on proposal #`_id`"
      },
      "stakeToProposal(uint256,uint256)": {
        "notice": "Stake `@tokenAmount((self.stakeToken(): address), _amount)` on proposal #`_id`"
      },
      "transferToVault(address)": {
        "notice": "Send funds to recovery Vault. This contract should never receive funds,        but in case it does, this function allows one to recover them."
      },
      "withdrawAllFromProposal(uint256)": {
        "notice": "Withdraw all `(self.stakeToken(): address).symbol(): string` tokens previously staked on proposal #`_id`"
      },
      "withdrawFromProposal(uint256,uint256)": {
        "notice": "Withdraw `@tokenAmount((self.stakeToken(): address), _amount)` previously staked on proposal #`_id`"
      }
    }
  }
}