{
  "contractName": "ConvictionVoting",
  "abi": [
    {
      "constant": true,
      "inputs": [],
      "name": "hasInitialized",
      "outputs": [
        {
          "name": "",
          "type": "bool"
        }
      ],
      "payable": false,
      "stateMutability": "view",
      "type": "function"
    },
    {
      "constant": true,
      "inputs": [],
      "name": "proposalCounter",
      "outputs": [
        {
          "name": "",
          "type": "uint256"
        }
      ],
      "payable": false,
      "stateMutability": "view",
      "type": "function"
    },
    {
      "constant": true,
      "inputs": [],
      "name": "D",
      "outputs": [
        {
          "name": "",
          "type": "uint256"
        }
      ],
      "payable": false,
      "stateMutability": "view",
      "type": "function"
    },
    {
      "constant": true,
      "inputs": [],
      "name": "ABSTAIN_PROPOSAL_ID",
      "outputs": [
        {
          "name": "",
          "type": "uint256"
        }
      ],
      "payable": false,
      "stateMutability": "view",
      "type": "function"
    },
    {
      "constant": true,
      "inputs": [
        {
          "name": "_script",
          "type": "bytes"
        }
      ],
      "name": "getEVMScriptExecutor",
      "outputs": [
        {
          "name": "",
          "type": "address"
        }
      ],
      "payable": false,
      "stateMutability": "view",
      "type": "function"
    },
    {
      "constant": true,
      "inputs": [],
      "name": "getRecoveryVault",
      "outputs": [
        {
          "name": "",
          "type": "address"
        }
      ],
      "payable": false,
      "stateMutability": "view",
      "type": "function"
    },
    {
      "constant": true,
      "inputs": [],
      "name": "MAX_STAKED_PROPOSALS",
      "outputs": [
        {
          "name": "",
          "type": "uint64"
        }
      ],
      "payable": false,
      "stateMutability": "view",
      "type": "function"
    },
    {
      "constant": false,
      "inputs": [
        {
          "name": "_from",
          "type": "address"
        },
        {
          "name": "_to",
          "type": "address"
        },
        {
          "name": "_amount",
          "type": "uint256"
        }
      ],
      "name": "onTransfer",
      "outputs": [
        {
          "name": "",
          "type": "bool"
        }
      ],
      "payable": false,
      "stateMutability": "nonpayable",
      "type": "function"
    },
    {
      "constant": false,
      "inputs": [
        {
          "name": "_hookId",
          "type": "uint256"
        },
        {
          "name": "_token",
          "type": "address"
        }
      ],
      "name": "onRegisterAsHook",
      "outputs": [],
      "payable": false,
      "stateMutability": "nonpayable",
      "type": "function"
    },
    {
      "constant": true,
      "inputs": [],
      "name": "requestToken",
      "outputs": [
        {
          "name": "",
          "type": "address"
        }
      ],
      "payable": false,
      "stateMutability": "view",
      "type": "function"
    },
    {
      "constant": true,
      "inputs": [],
      "name": "stakeToken",
      "outputs": [
        {
          "name": "",
          "type": "address"
        }
      ],
      "payable": false,
      "stateMutability": "view",
      "type": "function"
    },
    {
      "constant": true,
      "inputs": [],
      "name": "decay",
      "outputs": [
        {
          "name": "",
          "type": "uint256"
        }
      ],
      "payable": false,
      "stateMutability": "view",
      "type": "function"
    },
    {
      "constant": true,
      "inputs": [],
      "name": "maxRatio",
      "outputs": [
        {
          "name": "",
          "type": "uint256"
        }
      ],
      "payable": false,
      "stateMutability": "view",
      "type": "function"
    },
    {
      "constant": true,
      "inputs": [
        {
          "name": "token",
          "type": "address"
        }
      ],
      "name": "allowRecoverability",
      "outputs": [
        {
          "name": "",
          "type": "bool"
        }
      ],
      "payable": false,
      "stateMutability": "view",
      "type": "function"
    },
    {
      "constant": true,
      "inputs": [],
      "name": "appId",
      "outputs": [
        {
          "name": "",
          "type": "bytes32"
        }
      ],
      "payable": false,
      "stateMutability": "view",
      "type": "function"
    },
    {
      "constant": true,
      "inputs": [],
      "name": "totalStaked",
      "outputs": [
        {
          "name": "",
          "type": "uint256"
        }
      ],
      "payable": false,
      "stateMutability": "view",
      "type": "function"
    },
    {
      "constant": true,
      "inputs": [],
      "name": "CANCEL_PROPOSAL_ROLE",
      "outputs": [
        {
          "name": "",
          "type": "bytes32"
        }
      ],
      "payable": false,
      "stateMutability": "view",
      "type": "function"
    },
    {
      "constant": true,
      "inputs": [],
      "name": "getInitializationBlock",
      "outputs": [
        {
          "name": "",
          "type": "uint256"
        }
      ],
      "payable": false,
      "stateMutability": "view",
      "type": "function"
    },
    {
      "constant": false,
      "inputs": [
        {
          "name": "_token",
          "type": "address"
        }
      ],
      "name": "transferToVault",
      "outputs": [],
      "payable": false,
      "stateMutability": "nonpayable",
      "type": "function"
    },
    {
      "constant": true,
      "inputs": [
        {
          "name": "_sender",
          "type": "address"
        },
        {
          "name": "_role",
          "type": "bytes32"
        },
        {
          "name": "_params",
          "type": "uint256[]"
        }
      ],
      "name": "canPerform",
      "outputs": [
        {
          "name": "",
          "type": "bool"
        }
      ],
      "payable": false,
      "stateMutability": "view",
      "type": "function"
    },
    {
      "constant": true,
      "inputs": [],
      "name": "weight",
      "outputs": [
        {
          "name": "",
          "type": "uint256"
        }
      ],
      "payable": false,
      "stateMutability": "view",
      "type": "function"
    },
    {
      "constant": true,
      "inputs": [],
      "name": "getEVMScriptRegistry",
      "outputs": [
        {
          "name": "",
          "type": "address"
        }
      ],
      "payable": false,
      "stateMutability": "view",
      "type": "function"
    },
    {
      "constant": false,
      "inputs": [
        {
          "name": "_hookId",
          "type": "uint256"
        },
        {
          "name": "_token",
          "type": "address"
        }
      ],
      "name": "onRevokeAsHook",
      "outputs": [],
      "payable": false,
      "stateMutability": "nonpayable",
      "type": "function"
    },
    {
      "constant": true,
      "inputs": [],
      "name": "kernel",
      "outputs": [
        {
          "name": "",
          "type": "address"
        }
      ],
      "payable": false,
      "stateMutability": "view",
      "type": "function"
    },
    {
      "constant": false,
      "inputs": [
        {
          "name": "_holder",
          "type": "address"
        },
        {
          "name": "_spender",
          "type": "address"
        },
        {
          "name": "_amount",
          "type": "uint256"
        }
      ],
      "name": "onApprove",
      "outputs": [
        {
          "name": "",
          "type": "bool"
        }
      ],
      "payable": false,
      "stateMutability": "nonpayable",
      "type": "function"
    },
    {
      "constant": true,
      "inputs": [],
      "name": "minThresholdStakePercentage",
      "outputs": [
        {
          "name": "",
          "type": "uint256"
        }
      ],
      "payable": false,
      "stateMutability": "view",
      "type": "function"
    },
    {
      "constant": true,
      "inputs": [],
      "name": "ONE_HUNDRED_PERCENT",
      "outputs": [
        {
          "name": "",
          "type": "uint256"
        }
      ],
      "payable": false,
      "stateMutability": "view",
      "type": "function"
    },
    {
      "constant": true,
      "inputs": [],
      "name": "isPetrified",
      "outputs": [
        {
          "name": "",
          "type": "bool"
        }
      ],
      "payable": false,
      "stateMutability": "view",
      "type": "function"
    },
    {
      "constant": true,
      "inputs": [],
      "name": "CREATE_PROPOSALS_ROLE",
      "outputs": [
        {
          "name": "",
          "type": "bytes32"
        }
      ],
      "payable": false,
      "stateMutability": "view",
      "type": "function"
    },
    {
      "constant": true,
      "inputs": [],
      "name": "vault",
      "outputs": [
        {
          "name": "",
          "type": "address"
        }
      ],
      "payable": false,
      "stateMutability": "view",
      "type": "function"
    },
    {
      "anonymous": false,
      "inputs": [
        {
          "indexed": true,
          "name": "entity",
          "type": "address"
        },
        {
          "indexed": true,
          "name": "id",
          "type": "uint256"
        },
        {
          "indexed": false,
          "name": "title",
          "type": "string"
        },
        {
          "indexed": false,
          "name": "link",
          "type": "bytes"
        },
        {
          "indexed": false,
          "name": "amount",
          "type": "uint256"
        },
        {
          "indexed": false,
          "name": "beneficiary",
          "type": "address"
        }
      ],
      "name": "ProposalAdded",
      "type": "event"
    },
    {
      "anonymous": false,
      "inputs": [
        {
          "indexed": true,
          "name": "entity",
          "type": "address"
        },
        {
          "indexed": true,
          "name": "id",
          "type": "uint256"
        },
        {
          "indexed": false,
          "name": "amount",
          "type": "uint256"
        },
        {
          "indexed": false,
          "name": "tokensStaked",
          "type": "uint256"
        },
        {
          "indexed": false,
          "name": "totalTokensStaked",
          "type": "uint256"
        },
        {
          "indexed": false,
          "name": "conviction",
          "type": "uint256"
        }
      ],
      "name": "StakeAdded",
      "type": "event"
    },
    {
      "anonymous": false,
      "inputs": [
        {
          "indexed": false,
          "name": "entity",
          "type": "address"
        },
        {
          "indexed": true,
          "name": "id",
          "type": "uint256"
        },
        {
          "indexed": false,
          "name": "amount",
          "type": "uint256"
        },
        {
          "indexed": false,
          "name": "tokensStaked",
          "type": "uint256"
        },
        {
          "indexed": false,
          "name": "totalTokensStaked",
          "type": "uint256"
        },
        {
          "indexed": false,
          "name": "conviction",
          "type": "uint256"
        }
      ],
      "name": "StakeWithdrawn",
      "type": "event"
    },
    {
      "anonymous": false,
      "inputs": [
        {
          "indexed": true,
          "name": "id",
          "type": "uint256"
        },
        {
          "indexed": false,
          "name": "conviction",
          "type": "uint256"
        }
      ],
      "name": "ProposalExecuted",
      "type": "event"
    },
    {
      "anonymous": false,
      "inputs": [
        {
          "indexed": true,
          "name": "id",
          "type": "uint256"
        }
      ],
      "name": "ProposalCancelled",
      "type": "event"
    },
    {
      "anonymous": false,
      "inputs": [
        {
          "indexed": true,
          "name": "executor",
          "type": "address"
        },
        {
          "indexed": false,
          "name": "script",
          "type": "bytes"
        },
        {
          "indexed": false,
          "name": "input",
          "type": "bytes"
        },
        {
          "indexed": false,
          "name": "returnData",
          "type": "bytes"
        }
      ],
      "name": "ScriptResult",
      "type": "event"
    },
    {
      "anonymous": false,
      "inputs": [
        {
          "indexed": true,
          "name": "vault",
          "type": "address"
        },
        {
          "indexed": true,
          "name": "token",
          "type": "address"
        },
        {
          "indexed": false,
          "name": "amount",
          "type": "uint256"
        }
      ],
      "name": "RecoverToVault",
      "type": "event"
    },
    {
      "constant": false,
      "inputs": [
        {
          "name": "_stakeToken",
          "type": "address"
        },
        {
          "name": "_vault",
          "type": "address"
        },
        {
          "name": "_requestToken",
          "type": "address"
        },
        {
          "name": "_decay",
          "type": "uint256"
        },
        {
          "name": "_maxRatio",
          "type": "uint256"
        },
        {
          "name": "_weight",
          "type": "uint256"
        },
        {
          "name": "_minThresholdStakePercentage",
          "type": "uint256"
        }
      ],
      "name": "initialize",
      "outputs": [],
      "payable": false,
      "stateMutability": "nonpayable",
      "type": "function"
    },
    {
      "constant": false,
      "inputs": [
        {
          "name": "_title",
          "type": "string"
        },
        {
          "name": "_link",
          "type": "bytes"
        },
        {
          "name": "_requestedAmount",
          "type": "uint256"
        },
        {
          "name": "_beneficiary",
          "type": "address"
        }
      ],
      "name": "addProposal",
      "outputs": [],
      "payable": false,
      "stateMutability": "nonpayable",
      "type": "function"
    },
    {
      "constant": false,
      "inputs": [
        {
          "name": "_proposalId",
          "type": "uint256"
        },
        {
          "name": "_amount",
          "type": "uint256"
        }
      ],
      "name": "stakeToProposal",
      "outputs": [],
      "payable": false,
      "stateMutability": "nonpayable",
      "type": "function"
    },
    {
      "constant": false,
      "inputs": [
        {
          "name": "_proposalId",
          "type": "uint256"
        }
      ],
      "name": "stakeAllToProposal",
      "outputs": [],
      "payable": false,
      "stateMutability": "nonpayable",
      "type": "function"
    },
    {
      "constant": false,
      "inputs": [
        {
          "name": "_proposalId",
          "type": "uint256"
        },
        {
          "name": "_amount",
          "type": "uint256"
        }
      ],
      "name": "withdrawFromProposal",
      "outputs": [],
      "payable": false,
      "stateMutability": "nonpayable",
      "type": "function"
    },
    {
      "constant": false,
      "inputs": [
        {
          "name": "_proposalId",
          "type": "uint256"
        }
      ],
      "name": "withdrawAllFromProposal",
      "outputs": [],
      "payable": false,
      "stateMutability": "nonpayable",
      "type": "function"
    },
    {
      "constant": false,
      "inputs": [
        {
          "name": "_proposalId",
          "type": "uint256"
        }
      ],
      "name": "executeProposal",
      "outputs": [],
      "payable": false,
      "stateMutability": "nonpayable",
      "type": "function"
    },
    {
      "constant": false,
      "inputs": [
        {
          "name": "_proposalId",
          "type": "uint256"
        }
      ],
      "name": "cancelProposal",
      "outputs": [],
      "payable": false,
      "stateMutability": "nonpayable",
      "type": "function"
    },
    {
      "constant": true,
      "inputs": [
        {
          "name": "_proposalId",
          "type": "uint256"
        }
      ],
      "name": "getProposal",
      "outputs": [
        {
          "name": "requestedAmount",
          "type": "uint256"
        },
        {
          "name": "beneficiary",
          "type": "address"
        },
        {
          "name": "stakedTokens",
          "type": "uint256"
        },
        {
          "name": "convictionLast",
          "type": "uint256"
        },
        {
          "name": "blockLast",
          "type": "uint64"
        },
        {
          "name": "proposalStatus",
          "type": "uint8"
        },
        {
          "name": "submitter",
          "type": "address"
        }
      ],
      "payable": false,
      "stateMutability": "view",
      "type": "function"
    },
    {
      "constant": true,
      "inputs": [
        {
          "name": "_proposalId",
          "type": "uint256"
        },
        {
          "name": "_voter",
          "type": "address"
        }
      ],
      "name": "getProposalVoterStake",
      "outputs": [
        {
          "name": "",
          "type": "uint256"
        }
      ],
      "payable": false,
      "stateMutability": "view",
      "type": "function"
    },
    {
      "constant": true,
      "inputs": [
        {
          "name": "_voter",
          "type": "address"
        }
      ],
      "name": "getTotalVoterStake",
      "outputs": [
        {
          "name": "",
          "type": "uint256"
        }
      ],
      "payable": false,
      "stateMutability": "view",
      "type": "function"
    },
    {
      "constant": true,
      "inputs": [
        {
          "name": "_voter",
          "type": "address"
        }
      ],
      "name": "getVoterStakedProposals",
      "outputs": [
        {
          "name": "",
          "type": "uint256[]"
        }
      ],
      "payable": false,
      "stateMutability": "view",
      "type": "function"
    },
    {
      "constant": true,
      "inputs": [
        {
          "name": "_timePassed",
          "type": "uint64"
        },
        {
          "name": "_lastConv",
          "type": "uint256"
        },
        {
          "name": "_oldAmount",
          "type": "uint256"
        }
      ],
      "name": "calculateConviction",
      "outputs": [
        {
          "name": "",
          "type": "uint256"
        }
      ],
      "payable": false,
      "stateMutability": "view",
      "type": "function"
    },
    {
      "constant": true,
      "inputs": [
        {
          "name": "_requestedAmount",
          "type": "uint256"
        }
      ],
      "name": "calculateThreshold",
      "outputs": [
        {
          "name": "_threshold",
          "type": "uint256"
        }
      ],
      "payable": false,
      "stateMutability": "view",
      "type": "function"
    }
  ],
  "bytecode": "0x6080604052620000176401000000006200001d810204565b6200023b565b6200003064010000000062000125810204565b60408051808201909152601881527f494e49545f414c52454144595f494e495449414c495a45440000000000000000602082015290156200010c576040517f08c379a00000000000000000000000000000000000000000000000000000000081526004018080602001828103825283818151815260200191508051906020019080838360005b83811015620000d0578181015183820152602001620000b6565b50505050905090810190601f168015620000fe5780820380516001836020036101000a031916815260200191505b509250505060405180910390fd5b506200012360001964010000000062000154810204565b565b60006200014f6000805160206200547083398151915264010000000062003cd76200023382021704565b905090565b6200016764010000000062000125810204565b60408051808201909152601881527f494e49545f414c52454144595f494e495449414c495a454400000000000000006020820152901562000206576040517f08c379a000000000000000000000000000000000000000000000000000000000815260040180806020018281038252838181518152602001915080519060200190808383600083811015620000d0578181015183820152602001620000b6565b5062000230600080516020620054708339815191528264010000000062003cdb6200023782021704565b50565b5490565b9055565b615225806200024b6000396000f3006080604052600436106102195763ffffffff7c010000000000000000000000000000000000000000000000000000000060003504166303341082811461021e5780630803fac0146102685780630c0512e9146102915780630d61b519146102b85780630f529ba2146102d05780631522eb43146102e55780631df67d2f146102fa5780632914b9bd146103125780632b4656c81461039457806332f0a3b5146103da578063406244d8146103ef5780634a393149146104215780634d4eb6ce146104585780634d7ec628146104895780634fb3cbbc1461049e57806351ed6a30146104b657806354fac919146104cb57806359a5db8b146104e0578063649c649c146104f85780636ae1e5411461051357806376365af7146105915780637e7db6e1146105a657806380afdea8146105d4578063817b1cd2146105e95780638af07b10146105fe5780638b3dd749146106135780639d4941d814610628578063a1658fad14610656578063a1aab33f146106ca578063a479e508146106df578063c2239b24146106f4578063c7f758a814610725578063d4aae0c4146107c3578063da682aeb146107d8578063dac612601461080f578063db2d878c14610837578063dd0081c71461084c578063ddc90e7e14610861578063de4796ed1461088f578063e0a8f6f5146108a4578063e0dd2c38146108bc578063eeabf67e146108ed578063fbfa77cf14610902578063fc37005114610917575b600080fd5b34801561022a57600080fd5b50610266602460048035828101929082013591813591820191013560443573ffffffffffffffffffffffffffffffffffffffff60643516610932565b005b34801561027457600080fd5b5061027d610d13565b604080519115158252519081900360200190f35b34801561029d57600080fd5b506102a6610d3d565b60408051918252519081900360200190f35b3480156102c457600080fd5b50610266600435610d43565b3480156102dc57600080fd5b506102a66112f8565b3480156102f157600080fd5b506102a66112ff565b34801561030657600080fd5b50610266600435611304565b34801561031e57600080fd5b506040805160206004803580820135601f810184900484028501840190955284845261036b9436949293602493928401919081908401838280828437509497506115089650505050505050565b6040805173ffffffffffffffffffffffffffffffffffffffff9092168252519081900360200190f35b3480156103a057600080fd5b5061026673ffffffffffffffffffffffffffffffffffffffff6004358116906024358116906044351660643560843560a43560c435611614565b3480156103e657600080fd5b5061036b611995565b3480156103fb57600080fd5b50610404611a34565b6040805167ffffffffffffffff9092168252519081900360200190f35b34801561042d57600080fd5b5061027d73ffffffffffffffffffffffffffffffffffffffff60043581169060243516604435611a39565b34801561046457600080fd5b5061026660043573ffffffffffffffffffffffffffffffffffffffff60243516611c22565b34801561049557600080fd5b5061036b611e31565b3480156104aa57600080fd5b50610266600435611e4d565b3480156104c257600080fd5b5061036b611ff4565b3480156104d757600080fd5b506102a6612010565b3480156104ec57600080fd5b506102a6600435612016565b34801561050457600080fd5b5061026660043560243561226e565b34801561051f57600080fd5b5061054173ffffffffffffffffffffffffffffffffffffffff600435166123f8565b60408051602080825283518183015283519192839290830191858101910280838360005b8381101561057d578181015183820152602001610565565b505050509050019250505060405180910390f35b34801561059d57600080fd5b506102a6612471565b3480156105b257600080fd5b5061027d73ffffffffffffffffffffffffffffffffffffffff60043516612477565b3480156105e057600080fd5b506102a661247d565b3480156105f557600080fd5b506102a66124ad565b34801561060a57600080fd5b506102a66124b3565b34801561061f57600080fd5b506102a66124e8565b34801561063457600080fd5b5061026673ffffffffffffffffffffffffffffffffffffffff60043516612513565b34801561066257600080fd5b50604080516020600460443581810135838102808601850190965280855261027d95833573ffffffffffffffffffffffffffffffffffffffff169560248035963696956064959394920192918291850190849080828437509497506128359650505050505050565b3480156106d657600080fd5b506102a66129c5565b3480156106eb57600080fd5b5061036b6129cb565b34801561070057600080fd5b5061026660043573ffffffffffffffffffffffffffffffffffffffff60243516612a8d565b34801561073157600080fd5b5061073d600435612c3b565b6040805188815273ffffffffffffffffffffffffffffffffffffffff881660208201529081018690526060810185905267ffffffffffffffff8416608082015260a0810183600281111561078d57fe5b60ff16815273ffffffffffffffffffffffffffffffffffffffff9092166020830152506040805191829003019650945050505050f35b3480156107cf57600080fd5b5061036b612ca4565b3480156107e457600080fd5b5061027d73ffffffffffffffffffffffffffffffffffffffff60043581169060243516604435612ccf565b34801561081b57600080fd5b506102a667ffffffffffffffff60043516602435604435612e7e565b34801561084357600080fd5b506102a6612f4f565b34801561085857600080fd5b506102a6612f55565b34801561086d57600080fd5b506102a673ffffffffffffffffffffffffffffffffffffffff60043516612f61565b34801561089b57600080fd5b5061027d612f89565b3480156108b057600080fd5b50610266600435612fba565b3480156108c857600080fd5b506102a660043573ffffffffffffffffffffffffffffffffffffffff6024351661339c565b3480156108f957600080fd5b506102a66133d5565b34801561090e57600080fd5b5061036b61340a565b34801561092357600080fd5b50610266600435602435613426565b61093a610d13565b60408051808201909152601481527f494e49545f4e4f545f494e495449414c495a45440000000000000000000000006020820152901515610a13576040517f08c379a00000000000000000000000000000000000000000000000000000000081526004018080602001828103825283818151815260200191508051906020019080838360005b838110156109d85781810151838201526020016109c0565b50505050905090810190601f168015610a055780820380516001836020036101000a031916815260200191505b509250505060405180910390fd5b50604080517f4352454154455f50524f504f53414c535f524f4c4500000000000000000000008152815190819003601501812060008083526020830190935291610a639133918491905b50612835565b60408051808201909152600f81527f4150505f415554485f4641494c454400000000000000000000000000000000006020820152901515610b00576040517f08c379a0000000000000000000000000000000000000000000000000000000008152600401808060200182810382528381815181526020019150805190602001908083836000838110156109d85781810151838201526020016109c0565b506040805160e08101825284815273ffffffffffffffffffffffffffffffffffffffff84811660208084019182526000848601818152606086018281526080870183815260a088018481523360c08a01526008548552600a909552979092208651815593516001850180547fffffffffffffffffffffffff000000000000000000000000000000000000000016919096161790945592516002808401919091559251600383015593516004820180547fffffffffffffffffffffffffffffffffffffffffffffffff00000000000000001667ffffffffffffffff909216919091178082559451939491939290917fffffffffffffffffffffffffffffffffffffffffffffff00ffffffffffffffff169068010000000000000000908490811115610c2657fe5b021790555060c09190910151600690910180547fffffffffffffffffffffffff00000000000000000000000000000000000000001673ffffffffffffffffffffffffffffffffffffffff928316179055600854604080519081018690529184166060830152608080835282018890529033907f9fc9ab43300923a3b8d47f890603798c652956421ae650ed96c526f311d2c2ac908a908a908a908a908a908a90806020810160a082018989808284379091018481038352878152602001905087878082843760405192018290039a509098505050505050505050a350506008805460010190555050505050565b600080610d1e6124e8565b90508015801590610d36575080610d336134d7565b10155b91505b5090565b60085481565b6000610d4d610d13565b60408051808201909152601481527f494e49545f4e4f545f494e495449414c495a45440000000000000000000000006020820152901515610dea576040517f08c379a0000000000000000000000000000000000000000000000000000000008152600401808060200182810382528381815181526020019150805190602001908083836000838110156109d85781810151838201526020016109c0565b50818060011480610e2157506000818152600a602052604090206006015473ffffffffffffffffffffffffffffffffffffffff1615155b60408051808201909152601a81527f43565f50524f504f53414c5f444f45535f4e4f545f45584953540000000000006020820152901515610ebe576040517f08c379a0000000000000000000000000000000000000000000000000000000008152600401808060200182810382528381815181526020019150805190602001908083836000838110156109d85781810151838201526020016109c0565b50600a600084815260200190815260200160002091506001831415606060405190810160405280602281526020017f43565f43414e4e4f545f455845435554455f4142535441494e5f50524f504f5381526020017f414c000000000000000000000000000000000000000000000000000000000000815250901515610f9f576040517f08c379a0000000000000000000000000000000000000000000000000000000008152600401808060200182810382528381815181526020019150805190602001908083836000838110156109d85781810151838201526020016109c0565b50815460408051606081018252602581527f43565f43414e4e4f545f455845435554455f5a45524f5f56414c55455f50524f60208201527f504f53414c0000000000000000000000000000000000000000000000000000009181019190915290600010611068576040517f08c379a0000000000000000000000000000000000000000000000000000000008152600401808060200182810382528381815181526020019150805190602001908083836000838110156109d85781810151838201526020016109c0565b506000600483015468010000000000000000900460ff16600281111561108a57fe5b60408051808201909152601681527f43565f50524f504f53414c5f4e4f545f4143544956450000000000000000000060208201529114611126576040517f08c379a0000000000000000000000000000000000000000000000000000000008152600401808060200182810382528381815181526020019150805190602001908083836000838110156109d85781810151838201526020016109c0565b506111358283600201546134db565b815461114090612016565b600383015460408051808201909152601981527f43565f494e53554646494349454e545f434f4e564943494f4e00000000000000602082015291106111e1576040517f08c379a0000000000000000000000000000000000000000000000000000000008152600401808060200182810382528381815181526020019150805190602001908083836000838110156109d85781810151838201526020016109c0565b50600482810180547fffffffffffffffffffffffffffffffffffffffffffffff00ffffffffffffffff166802000000000000000017905560025460035460018501548554604080517fbeabacc800000000000000000000000000000000000000000000000000000000815273ffffffffffffffffffffffffffffffffffffffff94851696810196909652918316602486015260448501525191169163beabacc891606480830192600092919082900301818387803b1580156112a257600080fd5b505af11580156112b6573d6000803e3d6000fd5b505050600383015460408051918252518592507ff758fc91e01b00ea6b4a6138756f7f28e021f9bf21db6dbf8c36c88eb737257a9181900360200190a2505050565b6298968081565b600181565b61130c610d13565b60408051808201909152601481527f494e49545f4e4f545f494e495449414c495a454400000000000000000000000060208201529015156113a9576040517f08c379a0000000000000000000000000000000000000000000000000000000008152600401808060200182810382528381815181526020019150805190602001908083836000838110156109d85781810151838201526020016109c0565b50336000908152600b6020908152604091829020548251808401909352601983527f43565f5354414b494e475f414c52454144595f5354414b4544000000000000009183019190915215611459576040517f08c379a0000000000000000000000000000000000000000000000000000000008152600401808060200182810382528381815181526020019150805190602001908083836000838110156109d85781810151838201526020016109c0565b50600154604080517f70a08231000000000000000000000000000000000000000000000000000000008152336004820152905161150592849273ffffffffffffffffffffffffffffffffffffffff909116916370a08231916024808201926020929091908290030181600087803b1580156114d357600080fd5b505af11580156114e7573d6000803e3d6000fd5b505050506040513d60208110156114fd57600080fd5b505133613589565b50565b60006115126129cb565b73ffffffffffffffffffffffffffffffffffffffff166304bf2a7f836040518263ffffffff167c01000000000000000000000000000000000000000000000000000000000281526004018080602001828103825283818151815260200191508051906020019080838360005b8381101561159657818101518382015260200161157e565b50505050905090810190601f1680156115c35780820380516001836020036101000a031916815260200191505b5092505050602060405180830381600087803b1580156115e257600080fd5b505af11580156115f6573d6000803e3d6000fd5b505050506040513d602081101561160c57600080fd5b505192915050565b61161c6124e8565b60408051808201909152601881527f494e49545f414c52454144595f494e495449414c495a45440000000000000000602082015290156116b8576040517f08c379a0000000000000000000000000000000000000000000000000000000008152600401808060200182810382528381815181526020019150805190602001908083836000838110156109d85781810151838201526020016109c0565b50600260088190556001805473ffffffffffffffffffffffffffffffffffffffff8a81167fffffffffffffffffffffffff000000000000000000000000000000000000000092831617835583548a8216908316178455600380548a831690841617905560048890556005879055600686905560078590556040805160e08101825260008082526020808301828152938301828152606084018381526080850184815260a0860185815260c0870186905299909452600a90925283517fbbc70db1b6c7afd11e79c0fb0051300458f1a3acb8ee9789d9b6b26c61ad9bc790815594517fbbc70db1b6c7afd11e79c0fb0051300458f1a3acb8ee9789d9b6b26c61ad9bc8805490981696169590951790955592517fbbc70db1b6c7afd11e79c0fb0051300458f1a3acb8ee9789d9b6b26c61ad9bc95592517fbbc70db1b6c7afd11e79c0fb0051300458f1a3acb8ee9789d9b6b26c61ad9bca5590517fbbc70db1b6c7afd11e79c0fb0051300458f1a3acb8ee9789d9b6b26c61ad9bcb80547fffffffffffffffffffffffffffffffffffffffffffffffff00000000000000001667ffffffffffffffff9092169190911780825593519294919390917fffffffffffffffffffffffffffffffffffffffffffffff00ffffffffffffffff90911690680100000000000000009084908111156118ad57fe5b021790555060c0918201516006909101805473ffffffffffffffffffffffffffffffffffffffff9092167fffffffffffffffffffffffff00000000000000000000000000000000000000009092169190911790556040805160008183018190526060820181905260808083526010908301527f4162737461696e2070726f706f73616c0000000000000000000000000000000060a0830152602082018490529281018390529051600192917f9fc9ab43300923a3b8d47f890603798c652956421ae650ed96c526f311d2c2ac91908190036101000190a361198c613bf8565b50505050505050565b600061199f612ca4565b73ffffffffffffffffffffffffffffffffffffffff166332f0a3b56040518163ffffffff167c0100000000000000000000000000000000000000000000000000000000028152600401602060405180830381600087803b158015611a0257600080fd5b505af1158015611a16573d6000803e3d6000fd5b505050506040513d6020811015611a2c57600080fd5b505190505b90565b600a81565b6000805473ffffffffffffffffffffffffffffffffffffffff163314611ae657604080517f08c379a000000000000000000000000000000000000000000000000000000000815260206004820152602760248201527f486f6f6b73206d7573742062652063616c6c65642066726f6d20546f6b656e2060448201527f4d616e6167657200000000000000000000000000000000000000000000000000606482015290519081900360840190fd5b611b0f7fe855346402235fdd185c890e68d2c4ecad599b88587635ee285bce2fda58dacb613cd7565b60408051808201909152601981527f5245454e5452414e43595f5245454e5452414e545f43414c4c0000000000000060208201529015611bab576040517f08c379a0000000000000000000000000000000000000000000000000000000008152600401808060200182810382528381815181526020019150805190602001908083836000838110156109d85781810151838201526020016109c0565b50611bdd7fe855346402235fdd185c890e68d2c4ecad599b88587635ee285bce2fda58dacb600163ffffffff613cdb16565b611be8848484613cdf565b9050611c1b7fe855346402235fdd185c890e68d2c4ecad599b88587635ee285bce2fda58dacb600063ffffffff613cdb16565b9392505050565b611c4b7fe855346402235fdd185c890e68d2c4ecad599b88587635ee285bce2fda58dacb613cd7565b60408051808201909152601981527f5245454e5452414e43595f5245454e5452414e545f43414c4c0000000000000060208201529015611ce7576040517f08c379a0000000000000000000000000000000000000000000000000000000008152600401808060200182810382528381815181526020019150805190602001908083836000838110156109d85781810151838201526020016109c0565b50611d197fe855346402235fdd185c890e68d2c4ecad599b88587635ee285bce2fda58dacb600163ffffffff613cdb16565b60005473ffffffffffffffffffffffffffffffffffffffff1615611dc457604080517f08c379a000000000000000000000000000000000000000000000000000000000815260206004820152602860248201527f486f6f6b20616c7265616479207265676973746572656420627920546f6b656e60448201527f204d616e61676572000000000000000000000000000000000000000000000000606482015290519081900360840190fd5b600080547fffffffffffffffffffffffff00000000000000000000000000000000000000001633908117909155611dfc908383613e62565b611e2d7fe855346402235fdd185c890e68d2c4ecad599b88587635ee285bce2fda58dacb600063ffffffff613cdb16565b5050565b60035473ffffffffffffffffffffffffffffffffffffffff1681565b611e55610d13565b60408051808201909152601481527f494e49545f4e4f545f494e495449414c495a45440000000000000000000000006020820152901515611ef2576040517f08c379a0000000000000000000000000000000000000000000000000000000008152600401808060200182810382528381815181526020019150805190602001908083836000838110156109d85781810151838201526020016109c0565b50808060011480611f2957506000818152600a602052604090206006015473ffffffffffffffffffffffffffffffffffffffff1615155b60408051808201909152601a81527f43565f50524f504f53414c5f444f45535f4e4f545f45584953540000000000006020820152901515611fc6576040517f08c379a0000000000000000000000000000000000000000000000000000000008152600401808060200182810382528381815181526020019150805190602001908083836000838110156109d85781810151838201526020016109c0565b506000828152600a6020908152604080832033808552600590910190925290912054611e2d91849190613f1b565b60015473ffffffffffffffffffffffffffffffffffffffff1681565b60045481565b600254600354604080517fe3d670d700000000000000000000000000000000000000000000000000000000815273ffffffffffffffffffffffffffffffffffffffff928316600482015290516000938493849391169163e3d670d79160248082019260209290919082900301818787803b15801561209357600080fd5b505af11580156120a7573d6000803e3d6000fd5b505050506040513d60208110156120bd57600080fd5b505191506120d4846298968063ffffffff61427d16565b6005546120e7908463ffffffff61427d16565b60408051808201909152601881527f43565f414d4f554e545f4f5645525f4d41585f524154494f000000000000000060208201529110612183576040517f08c379a0000000000000000000000000000000000000000000000000000000008152600401808060200182810382528381815181526020019150805190602001908083836000838110156109d85781810151838201526020016109c0565b506121cf6121a26801000000000000000086028463ffffffff61434b16565b6005546121c39068010000000000000000026298968063ffffffff61434b16565b9063ffffffff61440216565b9050604061225f6121de6144ad565b6122536121f96004546298968061440290919063ffffffff16565b6122476298968061225360406122158a8063ffffffff61427d16565b60065460029290920a90049061224790700100000000000000000000000000000000026298968063ffffffff61434b16565b9063ffffffff61434b16565b9063ffffffff61427d16565b9060020a900492505050919050565b612276610d13565b60408051808201909152601481527f494e49545f4e4f545f494e495449414c495a45440000000000000000000000006020820152901515612313576040517f08c379a0000000000000000000000000000000000000000000000000000000008152600401808060200182810382528381815181526020019150805190602001908083836000838110156109d85781810151838201526020016109c0565b5081806001148061234a57506000818152600a602052604090206006015473ffffffffffffffffffffffffffffffffffffffff1615155b60408051808201909152601a81527f43565f50524f504f53414c5f444f45535f4e4f545f455849535400000000000060208201529015156123e7576040517f08c379a0000000000000000000000000000000000000000000000000000000008152600401808060200182810382528381815181526020019150805190602001908083836000838110156109d85781810151838201526020016109c0565b506123f3838333613f1b565b505050565b73ffffffffffffffffffffffffffffffffffffffff81166000908152600c602090815260409182902080548351818402810184019094528084526060939283018282801561246557602002820191906000526020600020905b815481526020019060010190808311612451575b50505050509050919050565b60055481565b50600190565b60006124a87fd625496217aa6a3453eecb9c3489dc5a53e6c67b444329ea2b2cbc9ff547639b613cd7565b905090565b60095481565b604080517f43414e43454c5f50524f504f53414c5f524f4c450000000000000000000000008152905190819003601401902081565b60006124a87febb05b386a8d34882b8711d156f463690983dc47815980fb82aeeff1aa43579e613cd7565b600080600061252184612477565b60408051808201909152601281527f5245434f5645525f444953414c4c4f574544000000000000000000000000000060208201529015156125be576040517f08c379a0000000000000000000000000000000000000000000000000000000008152600401808060200182810382528381815181526020019150805190602001908083836000838110156109d85781810151838201526020016109c0565b506125c7611995565b92506125d28361459c565b60408051808201909152601a81527f5245434f5645525f5641554c545f4e4f545f434f4e5452414354000000000000602082015290151561266f576040517f08c379a0000000000000000000000000000000000000000000000000000000008152600401808060200182810382528381815181526020019150805190602001908083836000838110156109d85781810151838201526020016109c0565b5073ffffffffffffffffffffffffffffffffffffffff841615156126da576040513031925073ffffffffffffffffffffffffffffffffffffffff84169083156108fc029084906000818181858888f193505050501580156126d4573d6000803e3d6000fd5b506127ca565b508261270273ffffffffffffffffffffffffffffffffffffffff82163063ffffffff6145d616565b915061272b73ffffffffffffffffffffffffffffffffffffffff8216848463ffffffff61471316565b60408051808201909152601d81527f5245434f5645525f544f4b454e5f5452414e534645525f4641494c454400000060208201529015156127c8576040517f08c379a0000000000000000000000000000000000000000000000000000000008152600401808060200182810382528381815181526020019150805190602001908083836000838110156109d85781810151838201526020016109c0565b505b8373ffffffffffffffffffffffffffffffffffffffff168373ffffffffffffffffffffffffffffffffffffffff167f596caf56044b55fb8c4ca640089bbc2b63cae3e978b851f5745cbb7c5b288e02846040518082815260200191505060405180910390a350505050565b600080612840610d13565b151561284f57600091506129bd565b612857612ca4565b905073ffffffffffffffffffffffffffffffffffffffff8116151561287f57600091506129bd565b8073ffffffffffffffffffffffffffffffffffffffff1663fdef91068630876128a7886147ab565b6040517c010000000000000000000000000000000000000000000000000000000063ffffffff871602815273ffffffffffffffffffffffffffffffffffffffff808616600483019081529085166024830152604482018490526080606483019081528351608484015283519192909160a490910190602085019080838360005b8381101561293f578181015183820152602001612927565b50505050905090810190601f16801561296c5780820380516001836020036101000a031916815260200191505b5095505050505050602060405180830381600087803b15801561298e57600080fd5b505af11580156129a2573d6000803e3d6000fd5b505050506040513d60208110156129b857600080fd5b505191505b509392505050565b60065481565b6000806129d6612ca4565b604080517fbe00bbd80000000000000000000000000000000000000000000000000000000081527fd6f028ca0e8edb4a8c9757ca4fdccab25fa1e0317da1188108f7d2dee14902fb60048201527fddbcfd564f642ab5627cf68b9b7d374fb4f8a36e941a75d89c87998cef03bd616024820152905173ffffffffffffffffffffffffffffffffffffffff929092169163be00bbd8916044808201926020929091908290030181600087803b1580156115e257600080fd5b60005473ffffffffffffffffffffffffffffffffffffffff163314612b3957604080517f08c379a000000000000000000000000000000000000000000000000000000000815260206004820152602760248201527f486f6f6b73206d7573742062652063616c6c65642066726f6d20546f6b656e2060448201527f4d616e6167657200000000000000000000000000000000000000000000000000606482015290519081900360840190fd5b612b627fe855346402235fdd185c890e68d2c4ecad599b88587635ee285bce2fda58dacb613cd7565b60408051808201909152601981527f5245454e5452414e43595f5245454e5452414e545f43414c4c0000000000000060208201529015612bfe576040517f08c379a0000000000000000000000000000000000000000000000000000000008152600401808060200182810382528381815181526020019150805190602001908083836000838110156109d85781810151838201526020016109c0565b50612c307fe855346402235fdd185c890e68d2c4ecad599b88587635ee285bce2fda58dacb600163ffffffff613cdb16565b611dfc3383836123f3565b6000908152600a6020526040902080546001820154600283015460038401546004850154600690950154939573ffffffffffffffffffffffffffffffffffffffff938416959294919367ffffffffffffffff84169368010000000000000000900460ff16921690565b60006124a87f4172f0f7d2289153072b0a6ca36959e0cbe2efc3afe50fc81636caa96338137b613cd7565b6000805473ffffffffffffffffffffffffffffffffffffffff163314612d7c57604080517f08c379a000000000000000000000000000000000000000000000000000000000815260206004820152602760248201527f486f6f6b73206d7573742062652063616c6c65642066726f6d20546f6b656e2060448201527f4d616e6167657200000000000000000000000000000000000000000000000000606482015290519081900360840190fd5b612da57fe855346402235fdd185c890e68d2c4ecad599b88587635ee285bce2fda58dacb613cd7565b60408051808201909152601981527f5245454e5452414e43595f5245454e5452414e545f43414c4c0000000000000060208201529015612e41576040517f08c379a0000000000000000000000000000000000000000000000000000000008152600401808060200182810382528381815181526020019150805190602001908083836000838110156109d85781810151838201526020016109c0565b50612e737fe855346402235fdd185c890e68d2c4ecad599b88587635ee285bce2fda58dacb600163ffffffff613cdb16565b611be88484846147b5565b60045460009067ffffffffffffffff8516908290612ec290612ebc90700100000000000000000000000000000000026298968063ffffffff61434b16565b836147be565b90506080612f3e6f80000000000000000000000000000000612f32612f226004546298968003612247612f0f8870010000000000000000000000000000000061440290919063ffffffff16565b6122538c6298968063ffffffff61427d16565b612f32868b63ffffffff61427d16565b9063ffffffff6148bf16565b9060020a9004925050509392505050565b60075481565b670de0b6b3a764000081565b73ffffffffffffffffffffffffffffffffffffffff166000908152600b602052604090205490565b60007fffffffffffffffffffffffffffffffffffffffffffffffffffffffffffffffff612fb46124e8565b14905090565b600080828060011480612ff357506000818152600a602052604090206006015473ffffffffffffffffffffffffffffffffffffffff1615155b60408051808201909152601a81527f43565f50524f504f53414c5f444f45535f4e4f545f45584953540000000000006020820152901515613090576040517f08c379a0000000000000000000000000000000000000000000000000000000008152600401808060200182810382528381815181526020019150805190602001908083836000838110156109d85781810151838201526020016109c0565b506000848152600a6020908152604080832081517f43414e43454c5f50524f504f53414c5f524f4c450000000000000000000000008152825190819003601401812085825293810190925295506130ea9233929190610a5d565b600684015490925073ffffffffffffffffffffffffffffffffffffffff163314806131125750815b60408051808201909152601781527f43565f53454e4445525f43414e4e4f545f43414e43454c00000000000000000060208201529015156131af576040517f08c379a0000000000000000000000000000000000000000000000000000000008152600401808060200182810382528381815181526020019150805190602001908083836000838110156109d85781810151838201526020016109c0565b5060408051606081018252602181527f43565f43414e4e4f545f43414e43454c5f4142535441494e5f50524f504f534160208201527f4c00000000000000000000000000000000000000000000000000000000000000918101919091526001851415613277576040517f08c379a0000000000000000000000000000000000000000000000000000000008152600401808060200182810382528381815181526020019150805190602001908083836000838110156109d85781810151838201526020016109c0565b506000600484015468010000000000000000900460ff16600281111561329957fe5b60408051808201909152601681527f43565f50524f504f53414c5f4e4f545f4143544956450000000000000000000060208201529114613335576040517f08c379a0000000000000000000000000000000000000000000000000000000008152600401808060200182810382528381815181526020019150805190602001908083836000838110156109d85781810151838201526020016109c0565b506004830180547fffffffffffffffffffffffffffffffffffffffffffffff00ffffffffffffffff166801000000000000000017905560405184907f416e669c63d9a3a5e36ee7cc7e2104b8db28ccd286aa18966e98fa230c73b08c90600090a250505050565b6000828152600a6020908152604080832073ffffffffffffffffffffffffffffffffffffffff8516845260050190915290205492915050565b604080517f4352454154455f50524f504f53414c535f524f4c4500000000000000000000008152905190819003601501902081565b60025473ffffffffffffffffffffffffffffffffffffffff1681565b61342e610d13565b60408051808201909152601481527f494e49545f4e4f545f494e495449414c495a454400000000000000000000000060208201529015156134cb576040517f08c379a0000000000000000000000000000000000000000000000000000000008152600401808060200182810382528381815181526020019150805190602001908083836000838110156109d85781810151838201526020016109c0565b50611e2d828233613589565b4390565b6000806134e6614964565b600485015490925067ffffffffffffffff8084169116111561350457fe5b600484015467ffffffffffffffff8381169116141561352257613583565b600484015460038501546135439167ffffffffffffffff1684039085612e7e565b6004850180547fffffffffffffffffffffffffffffffffffffffffffffffff00000000000000001667ffffffffffffffff85161790556003850181905590505b50505050565b60008060008580600114806135c457506000818152600a602052604090206006015473ffffffffffffffffffffffffffffffffffffffff1615155b60408051808201909152601a81527f43565f50524f504f53414c5f444f45535f4e4f545f45584953540000000000006020820152901515613661576040517f08c379a0000000000000000000000000000000000000000000000000000000008152600401808060200182810382528381815181526020019150805190602001908083836000838110156109d85781810151838201526020016109c0565b506000878152600a602090815260408083208151808301909252601982527f43565f414d4f554e545f43414e5f4e4f545f42455f5a45524f0000000000000092820192909252909550908711613713576040517f08c379a0000000000000000000000000000000000000000000000000000000008152600401808060200182810382528381815181526020019150805190602001908083836000838110156109d85781810151838201526020016109c0565b506000600485015468010000000000000000900460ff16600281111561373557fe5b60408051808201909152601681527f43565f50524f504f53414c5f4e4f545f41435449564500000000000000000000602082015291146137d1576040517f08c379a0000000000000000000000000000000000000000000000000000000008152600401808060200182810382528381815181526020019150805190602001908083836000838110156109d85781810151838201526020016109c0565b5073ffffffffffffffffffffffffffffffffffffffff8086166000818152600b602090815260408083205460015482517f70a082310000000000000000000000000000000000000000000000000000000081526004810196909652915161389796919592909116936370a0823193602480850194919392918390030190829087803b15801561385f57600080fd5b505af1158015613873573d6000803e3d6000fd5b505050506040513d602081101561388957600080fd5b50519063ffffffff61440216565b9250828611156138ba576138ba6138b4878563ffffffff61440216565b86614976565b600154604080517f70a0823100000000000000000000000000000000000000000000000000000000815273ffffffffffffffffffffffffffffffffffffffff8881166004830152915191909216916370a082319160248083019260209291908290030181600087803b15801561392f57600080fd5b505af1158015613943573d6000803e3d6000fd5b505050506040513d602081101561395957600080fd5b505173ffffffffffffffffffffffffffffffffffffffff86166000908152600b6020526040902054613991908863ffffffff6148bf16565b60408051808201909152601e81527f43565f5354414b494e475f4d4f52455f5448414e5f415641494c41424c4500006020820152911015613a2e576040517f08c379a0000000000000000000000000000000000000000000000000000000008152600401808060200182810382528381815181526020019150805190602001908083836000838110156109d85781810151838201526020016109c0565b5060028401549150613a46828763ffffffff6148bf16565b600285015573ffffffffffffffffffffffffffffffffffffffff85166000908152600585016020526040902054613a83908763ffffffff6148bf16565b73ffffffffffffffffffffffffffffffffffffffff86166000908152600586016020908152604080832093909355600b90522054613ac7908763ffffffff6148bf16565b73ffffffffffffffffffffffffffffffffffffffff86166000908152600b6020526040902055600954613b00908763ffffffff6148bf16565b600955600484015467ffffffffffffffff161515613b6057613b20614964565b6004850180547fffffffffffffffffffffffffffffffffffffffffffffffff00000000000000001667ffffffffffffffff92909216919091179055613b6a565b613b6a84836134db565b613b748786614abd565b73ffffffffffffffffffffffffffffffffffffffff85166000818152600586016020908152604091829020546002880154600389015484518c81529384019290925282840152606082015290518992917f28d9b583e0c477691a08f6c1e00fedc0895ed4221487c627fa96a7024119f499919081900360800190a350505050505050565b613c006124e8565b60408051808201909152601881527f494e49545f414c52454144595f494e495449414c495a4544000000000000000060208201529015613c9c576040517f08c379a0000000000000000000000000000000000000000000000000000000008152600401808060200182810382528381815181526020019150805190602001908083836000838110156109d85781810151838201526020016109c0565b50613cd5613ca86134d7565b7febb05b386a8d34882b8711d156f463690983dc47815980fb82aeeff1aa43579e9063ffffffff613cdb16565b565b5490565b9055565b60008073ffffffffffffffffffffffffffffffffffffffff85161515613d0857600191506129bd565b600154604080517f70a0823100000000000000000000000000000000000000000000000000000000815273ffffffffffffffffffffffffffffffffffffffff88811660048301529151613d8093879316916370a082319160248083019260209291908290030181600087803b15801561385f57600080fd5b73ffffffffffffffffffffffffffffffffffffffff86166000908152600b6020526040902054909150811015613dea5773ffffffffffffffffffffffffffffffffffffffff85166000908152600b6020526040902054613dea906138b4908363ffffffff61440216565b73ffffffffffffffffffffffffffffffffffffffff85166000908152600b6020526040902054811015613e575773ffffffffffffffffffffffffffffffffffffffff85166000908152600b6020526040902054613e5790613e51908363ffffffff61440216565b86614bb7565b506001949350505050565b60015460408051808201909152601f81527f43565f494e434f52524543545f544f4b454e5f4d414e414745525f484f4f4b0060208201529073ffffffffffffffffffffffffffffffffffffffff838116911614613583576040517f08c379a0000000000000000000000000000000000000000000000000000000008152600401808060200182810382528381815181526020019150805190602001908083836000838110156109d85781810151838201526020016109c0565b6000838152600a6020908152604080832073ffffffffffffffffffffffffffffffffffffffff85168452600581018352818420548251808401909352601c83527f43565f57495448445241575f4d4f52455f5448414e5f5354414b454400000000938301939093529291851115613fee576040517f08c379a0000000000000000000000000000000000000000000000000000000008152600401808060200182810382528381815181526020019150805190602001908083836000838110156109d85781810151838201526020016109c0565b5060408051808201909152601981527f43565f414d4f554e545f43414e5f4e4f545f42455f5a45524f0000000000000060208201526000851161408d576040517f08c379a0000000000000000000000000000000000000000000000000000000008152600401808060200182810382528381815181526020019150805190602001908083836000838110156109d85781810151838201526020016109c0565b505060028101546140a4818563ffffffff61440216565b600283015573ffffffffffffffffffffffffffffffffffffffff831660009081526005830160205260409020546140e1908563ffffffff61440216565b73ffffffffffffffffffffffffffffffffffffffff84166000908152600584016020908152604080832093909355600b90522054614125908563ffffffff61440216565b73ffffffffffffffffffffffffffffffffffffffff84166000908152600b602052604090205560095461415e908563ffffffff61440216565b60095573ffffffffffffffffffffffffffffffffffffffff8316600090815260058301602052604090205415156141c65773ffffffffffffffffffffffffffffffffffffffff83166000908152600c602052604090206141c4908663ffffffff614e0a16565b505b6002600483015468010000000000000000900460ff1660028111156141e757fe5b146141f6576141f682826134db565b73ffffffffffffffffffffffffffffffffffffffff831660008181526005840160209081526040918290205460028601546003870154845195865292850189905284840191909152606084015260808301525186917f16f23283da3097bc9027dcdf31f24863b1520556f04818d406f0e6ecd08580f5919081900360a00190a25050505050565b6000808315156142905760009150614344565b508282028284828115156142a057fe5b60408051808201909152601181527f4d4154485f4d554c5f4f564552464c4f570000000000000000000000000000006020820152929190041461433f576040517f08c379a0000000000000000000000000000000000000000000000000000000008152600401808060200182810382528381815181526020019150805190602001908083836000838110156109d85781810151838201526020016109c0565b508091505b5092915050565b60408051808201909152600d81527f4d4154485f4449565f5a45524f00000000000000000000000000000000000000602082015260009081908184116143ed576040517f08c379a0000000000000000000000000000000000000000000000000000000008152600401808060200182810382528381815181526020019150805190602001908083836000838110156109d85781810151838201526020016109c0565b5082848115156143f957fe5b04949350505050565b60408051808201909152601281527f4d4154485f5355425f554e444552464c4f57000000000000000000000000000060208201526000908190848411156144a5576040517f08c379a0000000000000000000000000000000000000000000000000000000008152600401808060200182810382528381815181526020019150805190602001908083836000838110156109d85781810151838201526020016109c0565b505050900390565b600080614580670de0b6b3a7640000612247600754600160009054906101000a900473ffffffffffffffffffffffffffffffffffffffff1673ffffffffffffffffffffffffffffffffffffffff166318160ddd6040518163ffffffff167c0100000000000000000000000000000000000000000000000000000000028152600401602060405180830381600087803b15801561454857600080fd5b505af115801561455c573d6000803e3d6000fd5b505050506040513d602081101561457257600080fd5b50519063ffffffff61427d16565b9050806009541061459357600954610d36565b919050565b5490565b60008073ffffffffffffffffffffffffffffffffffffffff831615156145c557600091506145d0565b823b90506000811191505b50919050565b6040805173ffffffffffffffffffffffffffffffffffffffff83166024808301919091528251808303909101815260449091019091526020810180517bffffffffffffffffffffffffffffffffffffffffffffffffffffffff167f70a082310000000000000000000000000000000000000000000000000000000017905260009081806146638684614edf565b60408051808201909152601c81527f534146455f4552435f32305f42414c414e43455f52455645525445440000000060208201529193509150821515614705576040517f08c379a0000000000000000000000000000000000000000000000000000000008152600401808060200182810382528381815181526020019150805190602001908083836000838110156109d85781810151838201526020016109c0565b508093505b50505092915050565b6040805173ffffffffffffffffffffffffffffffffffffffff8416602482015260448082018490528251808303909101815260649091019091526020810180517bffffffffffffffffffffffffffffffffffffffffffffffffffffffff167fa9059cbb000000000000000000000000000000000000000000000000000000001790526000906147a28582614f10565b95945050505050565b8051602002815290565b60019392505050565b60008080700100000000000000000000000000000000851061484157604080517f08c379a000000000000000000000000000000000000000000000000000000000815260206004820152601c60248201527f5f612073686f756c64206265206c657373207468616e20325e31323800000000604482015290519081900360640190fd5b507001000000000000000000000000000000009150839050825b60008111156148b757600181161515614883576148788283614f5e565b9150600290046148b2565b61488d8383614f5e565b92507fffffffffffffffffffffffffffffffffffffffffffffffffffffffffffffffff015b61485b565b505092915050565b60408051808201909152601181527f4d4154485f4144445f4f564552464c4f570000000000000000000000000000006020820152600090838301908482101561433f576040517f08c379a0000000000000000000000000000000000000000000000000000000008152600401808060200182810382528381815181526020019150805190602001908083836000838110156109d85781810151838201526020016109c0565b60006124a86149716134d7565b6150b9565b73ffffffffffffffffffffffffffffffffffffffff81166000908152600c60209081526040808320805482518185028101850190935280835284938493606093859384938301828280156149e957602002820191906000526020600020905b8154815260200190600101908083116149d5575b505050505092505b825186108015614a0057508784105b15614ab3578286815181101515614a1357fe5b60209081029091018101516000818152600a909252604090912090925090506002600482015468010000000000000000900460ff166002811115614a5357fe5b1415614aa85773ffffffffffffffffffffffffffffffffffffffff871660009081526005820160205260408120549550851115614aa857614a95828689613f1b565b614aa5848663ffffffff6148bf16565b93505b6001909501946149f1565b5050505050505050565b73ffffffffffffffffffffffffffffffffffffffff81166000908152600c60205260409020614af2818463ffffffff61516916565b15156123f357805460408051808201909152601881527f43565f4d41585f50524f504f53414c535f524541434845440000000000000000602082015290600a11614b98576040517f08c379a0000000000000000000000000000000000000000000000000000000008152600401808060200182810382528381815181526020019150805190602001908083836000838110156109d85781810151838201526020016109c0565b50805460018101825560008281526020902001839055505050565b9055565b73ffffffffffffffffffffffffffffffffffffffff81166000908152600c6020908152604080832080548251818502810185019093528083528493849360609385938493830182828015614c2a57602002820191906000526020600020905b815481526020019060010190808311614c16575b5050505073ffffffffffffffffffffffffffffffffffffffff89166000908152600c60205260409020919450614c639190506001615169565b15614ce25773ffffffffffffffffffffffffffffffffffffffff871660009081527fbbc70db1b6c7afd11e79c0fb0051300458f1a3acb8ee9789d9b6b26c61ad9bcc6020526040902054614cb89089906151b1565b94506000851115614ce257614ccf60018689613f1b565b614cdf848663ffffffff6148bf16565b93505b73ffffffffffffffffffffffffffffffffffffffff87166000908152600c602090815260409182902080548351818402810184019094528084529091830182828015614d4d57602002820191906000526020600020905b815481526020019060010190808311614d39575b505050505092505b825186108015614d6457508784105b15614ab3578286815181101515614d7757fe5b60209081029091018101516000818152600a90925260409091209092509050614dd6614da9898663ffffffff61440216565b73ffffffffffffffffffffffffffffffffffffffff891660009081526005840160205260409020546151b1565b94506000851115614dff57614dec828689613f1b565b614dfc848663ffffffff6148bf16565b93505b600190950194614d55565b815460009081805b82821015614ed357848683815481101515614e2957fe5b90600052602060002001541415614ec8575084547fffffffffffffffffffffffffffffffffffffffffffffffffffffffffffffffff01818114614e9a578581815481101515614e7457fe5b90600052602060002001548683815481101515614e8d57fe5b6000918252602090912001555b8581815481101515614ea857fe5b600091825260208220015580614ebe87826151c0565b506001935061470a565b600190910190614e12565b50600095945050505050565b6000806000806040516020818751602089018a5afa92506000831115614f0457805191505b50909590945092505050565b6000806040516020818551602087016000895af16000811115614f54573d8015614f415760208114614f4a57614f52565b60019350614f52565b600183511493505b505b5090949350505050565b600070010000000000000000000000000000000083111561500657604080517f08c379a000000000000000000000000000000000000000000000000000000000815260206004820152602860248201527f5f612073686f756c64206265206c657373207468616e206f7220657175616c2060448201527f746f20325e313238000000000000000000000000000000000000000000000000606482015290519081900360840190fd5b700100000000000000000000000000000000821061508557604080517f08c379a000000000000000000000000000000000000000000000000000000000815260206004820152601c60248201527f5f622073686f756c64206265206c657373207468616e20325e31323800000000604482015290519081900360640190fd5b60806150ab6f80000000000000000000000000000000612f32868663ffffffff61427d16565b9060020a9004905092915050565b60408051808201909152601581527f55494e5436345f4e554d4245525f544f4f5f4249470000000000000000000000602082015260009067ffffffffffffffff831115615162576040517f08c379a0000000000000000000000000000000000000000000000000000000008152600401808060200182810382528381815181526020019150805190602001908083836000838110156109d85781810151838201526020016109c0565b5090919050565b6000805b83548110156151a75782848281548110151561518557fe5b9060005260206000200154141561519f5760019150614344565b60010161516d565b5060009392505050565b60008183106151625781611c1b565b8154818355818111156123f3576000838152602090206123f3918101908301611a3191905b80821115610d3957600081556001016151e55600a165627a7a72305820a10faa435de2ad7a0d19380e54ac9dee8d7af636912f64563499ce0b3a4443090029ebb05b386a8d34882b8711d156f463690983dc47815980fb82aeeff1aa43579e",
  "source": "pragma solidity ^0.4.24;\n\nimport \"@aragon/os/contracts/apps/AragonApp.sol\";\nimport \"@aragon/apps-shared-minime/contracts/MiniMeToken.sol\";\nimport \"@aragon/apps-vault/contracts/Vault.sol\";\nimport \"@aragon/os/contracts/lib/math/SafeMath.sol\";\nimport \"@aragon/os/contracts/lib/math/SafeMath64.sol\";\nimport \"@aragon/os/contracts/lib/math/Math.sol\";\nimport \"@1hive/apps-token-manager/contracts/TokenManagerHook.sol\";\nimport \"./lib/ArrayUtils.sol\";\n\ncontract ConvictionVoting is AragonApp, TokenManagerHook {\n    using SafeMath for uint256;\n    using SafeMath64 for uint64;\n    using ArrayUtils for uint256[];\n\n    bytes32 constant public CREATE_PROPOSALS_ROLE = keccak256(\"CREATE_PROPOSALS_ROLE\");\n    bytes32 constant public CANCEL_PROPOSAL_ROLE = keccak256(\"CANCEL_PROPOSAL_ROLE\");\n\n    uint256 constant public D = 10000000;\n    uint256 constant public ONE_HUNDRED_PERCENT = 1e18;\n    uint256 constant private TWO_128 = 0x100000000000000000000000000000000; // 2^128\n    uint256 constant private TWO_127 = 0x80000000000000000000000000000000; // 2^127\n    uint256 constant private TWO_64 = 0x10000000000000000; // 2^64\n    uint256 constant public ABSTAIN_PROPOSAL_ID = 1;\n    uint64 constant public MAX_STAKED_PROPOSALS = 10;\n\n    string private constant ERROR_PROPOSAL_DOES_NOT_EXIST = \"CV_PROPOSAL_DOES_NOT_EXIST\";\n    string private constant ERROR_STAKING_ALREADY_STAKED = \"CV_STAKING_ALREADY_STAKED\";\n    string private constant ERROR_PROPOSAL_NOT_ACTIVE = \"CV_PROPOSAL_NOT_ACTIVE\";\n    string private constant ERROR_CANNOT_EXECUTE_ABSTAIN_PROPOSAL = \"CV_CANNOT_EXECUTE_ABSTAIN_PROPOSAL\";\n    string private constant ERROR_CANNOT_EXECUTE_ZERO_VALUE_PROPOSAL = \"CV_CANNOT_EXECUTE_ZERO_VALUE_PROPOSAL\";\n    string private constant ERROR_INSUFFICIENT_CONVICION = \"CV_INSUFFICIENT_CONVICION\";\n    string private constant ERROR_SENDER_CANNOT_CANCEL = \"CV_SENDER_CANNOT_CANCEL\";\n    string private constant ERROR_CANNOT_CANCEL_ABSTAIN_PROPOSAL = \"CV_CANNOT_CANCEL_ABSTAIN_PROPOSAL\";\n    string private constant ERROR_AMOUNT_OVER_MAX_RATIO = \"CV_AMOUNT_OVER_MAX_RATIO\";\n    string private constant ERROR_INCORRECT_TOKEN_MANAGER_HOOK = \"CV_INCORRECT_TOKEN_MANAGER_HOOK\";\n    string private constant ERROR_AMOUNT_CAN_NOT_BE_ZERO = \"CV_AMOUNT_CAN_NOT_BE_ZERO\";\n    string private constant ERROR_STAKING_MORE_THAN_AVAILABLE = \"CV_STAKING_MORE_THAN_AVAILABLE\";\n    string private constant ERROR_MAX_PROPOSALS_REACHED = \"CV_MAX_PROPOSALS_REACHED\";\n    string private constant ERROR_WITHDRAW_MORE_THAN_STAKED = \"CV_WITHDRAW_MORE_THAN_STAKED\";\n\n    enum ProposalStatus {\n        Active,              // A vote that has been reported to Agreements\n        Cancelled,           // A vote that has been cancelled\n        Executed             // A vote that has been executed\n    }\n\n    struct Proposal {\n        uint256 requestedAmount;\n        address beneficiary;\n        uint256 stakedTokens;\n        uint256 convictionLast;\n        uint64 blockLast;\n        ProposalStatus proposalStatus;\n        mapping(address => uint256) voterStake;\n        address submitter;\n    }\n\n    MiniMeToken public stakeToken;\n    Vault public vault;\n    address public requestToken;\n    uint256 public decay;\n    uint256 public maxRatio;\n    uint256 public weight;\n    uint256 public minThresholdStakePercentage;\n    uint256 public proposalCounter;\n    uint256 public totalStaked;\n\n    mapping(uint256 => Proposal) internal proposals;\n    mapping(address => uint256) internal totalVoterStake;\n    mapping(address => uint256[]) internal voterStakedProposals;\n\n    event ProposalAdded(address indexed entity, uint256 indexed id, string title, bytes link, uint256 amount, address beneficiary);\n    event StakeAdded(address indexed entity, uint256 indexed id, uint256  amount, uint256 tokensStaked, uint256 totalTokensStaked, uint256 conviction);\n    event StakeWithdrawn(address entity, uint256 indexed id, uint256 amount, uint256 tokensStaked, uint256 totalTokensStaked, uint256 conviction);\n    event ProposalExecuted(uint256 indexed id, uint256 conviction);\n    event ProposalCancelled(uint256 indexed id);\n\n    modifier proposalExists(uint256 _proposalId) {\n        require(_proposalId == 1 || proposals[_proposalId].submitter != address(0), ERROR_PROPOSAL_DOES_NOT_EXIST);\n        _;\n    }\n\n    function initialize(\n        MiniMeToken _stakeToken,\n        Vault _vault,\n        address _requestToken,\n        uint256 _decay,\n        uint256 _maxRatio,\n        uint256 _weight,\n        uint256 _minThresholdStakePercentage\n    )\n        public onlyInit\n    {\n        proposalCounter = 2; // First proposal should be #2, #1 is reserved for abstain proposal, #0 is not used for better UX.\n        stakeToken = _stakeToken;\n        vault = _vault;\n        requestToken = _requestToken;\n        decay = _decay;\n        maxRatio = _maxRatio;\n        weight = _weight;\n        minThresholdStakePercentage = _minThresholdStakePercentage;\n\n        proposals[ABSTAIN_PROPOSAL_ID] = Proposal(\n            0,\n            0x0,\n            0,\n            0,\n            0,\n            ProposalStatus.Active,\n            0x0\n        );\n        emit ProposalAdded(0x0, ABSTAIN_PROPOSAL_ID, \"Abstain proposal\", \"\", 0, 0x0);\n\n        initialized();\n    }\n\n    /**\n     * @notice Add proposal `_title` for  `@tokenAmount((self.requestToken(): address), _requestedAmount)` to `_beneficiary`\n     * @param _title Title of the proposal\n     * @param _link IPFS or HTTP link with proposal's description\n     * @param _requestedAmount Tokens requested\n     * @param _beneficiary Address that will receive payment\n     */\n    function addProposal(\n        string _title,\n        bytes _link,\n        uint256 _requestedAmount,\n        address _beneficiary\n    )\n        external isInitialized() auth(CREATE_PROPOSALS_ROLE)\n    {\n        proposals[proposalCounter] = Proposal(\n            _requestedAmount,\n            _beneficiary,\n            0,\n            0,\n            0,\n            ProposalStatus.Active,\n            msg.sender\n        );\n\n        emit ProposalAdded(msg.sender, proposalCounter, _title, _link, _requestedAmount, _beneficiary);\n        proposalCounter++;\n    }\n\n    /**\n      * @notice Stake `@tokenAmount((self.stakeToken(): address), _amount)` on proposal #`_proposalId`\n      * @param _proposalId Proposal id\n      * @param _amount Amount of tokens staked\n      */\n    function stakeToProposal(uint256 _proposalId, uint256 _amount) external isInitialized() {\n        _stake(_proposalId, _amount, msg.sender);\n    }\n\n    /**\n     * @notice Stake all my `(self.stakeToken(): address).symbol(): string` tokens on proposal #`_proposalId`\n     * @param _proposalId Proposal id\n     */\n    function stakeAllToProposal(uint256 _proposalId) external isInitialized() {\n        require(totalVoterStake[msg.sender] == 0, ERROR_STAKING_ALREADY_STAKED);\n        _stake(_proposalId, stakeToken.balanceOf(msg.sender), msg.sender);\n    }\n\n    /**\n     * @notice Withdraw `@tokenAmount((self.stakeToken(): address), _amount)` previously staked on proposal #`_proposalId`\n     * @param _proposalId Proposal id\n     * @param _amount Amount of tokens withdrawn\n     */\n    function withdrawFromProposal(uint256 _proposalId, uint256 _amount) external isInitialized() proposalExists(_proposalId) {\n        _withdrawFromProposal(_proposalId, _amount, msg.sender);\n    }\n\n    /**\n     * @notice Withdraw all `(self.stakeToken(): address).symbol(): string` tokens previously staked on proposal #`_proposalId`\n     * @param _proposalId Proposal id\n     */\n    function withdrawAllFromProposal(uint256 _proposalId) external isInitialized() proposalExists(_proposalId) {\n        _withdrawFromProposal(_proposalId, proposals[_proposalId].voterStake[msg.sender], msg.sender);\n    }\n\n    /**\n     * @notice Execute proposal #`_proposalId`\n     * @dev ...by sending `@tokenAmount((self.requestToken(): address), self.getPropoal(_proposalId): ([uint256], address, uint256, uint256, uint64, bool))` to `self.getPropoal(_proposalId): (uint256, [address], uint256, uint256, uint64, bool)`\n     * @param _proposalId Proposal id\n     */\n    function executeProposal(uint256 _proposalId) external isInitialized() proposalExists(_proposalId) {\n        Proposal storage proposal = proposals[_proposalId];\n\n        require(_proposalId != ABSTAIN_PROPOSAL_ID, ERROR_CANNOT_EXECUTE_ABSTAIN_PROPOSAL);\n        require(proposal.requestedAmount > 0, ERROR_CANNOT_EXECUTE_ZERO_VALUE_PROPOSAL);\n        require(proposal.proposalStatus == ProposalStatus.Active, ERROR_PROPOSAL_NOT_ACTIVE);\n        _calculateAndSetConviction(proposal, proposal.stakedTokens);\n        require(proposal.convictionLast > calculateThreshold(proposal.requestedAmount), ERROR_INSUFFICIENT_CONVICION);\n\n        proposal.proposalStatus = ProposalStatus.Executed;\n        vault.transfer(requestToken, proposal.beneficiary, proposal.requestedAmount);\n\n        emit ProposalExecuted(_proposalId, proposal.convictionLast);\n    }\n\n    /**\n     * @notice Cancel proposal #`_proposalId`\n     * @param _proposalId Proposal id\n     */\n    function cancelProposal(uint256 _proposalId) external proposalExists(_proposalId) {\n        Proposal storage proposal = proposals[_proposalId];\n\n        bool senderHasPermission = canPerform(msg.sender, CANCEL_PROPOSAL_ROLE, new uint256[](0));\n        require(proposal.submitter == msg.sender || senderHasPermission, ERROR_SENDER_CANNOT_CANCEL);\n        require(_proposalId != ABSTAIN_PROPOSAL_ID, ERROR_CANNOT_CANCEL_ABSTAIN_PROPOSAL);\n        require(proposal.proposalStatus == ProposalStatus.Active, ERROR_PROPOSAL_NOT_ACTIVE);\n\n        proposal.proposalStatus = ProposalStatus.Cancelled;\n\n        emit ProposalCancelled(_proposalId);\n    }\n\n    /**\n     * @dev Get proposal details\n     * @param _proposalId Proposal id\n     * @return Requested amount\n     * @return Beneficiary address\n     * @return Current total stake of tokens on this proposal\n     * @return Conviction this proposal had last time calculateAndSetConviction was called\n     * @return Block when calculateAndSetConviction was called\n     * @return True if proposal has already been executed\n     * @return ProposalStatus defining the state of the proposal\n     * @return Submitter of the proposal\n     */\n    function getProposal(uint256 _proposalId) public view returns (\n        uint256 requestedAmount,\n        address beneficiary,\n        uint256 stakedTokens,\n        uint256 convictionLast,\n        uint64 blockLast,\n        ProposalStatus proposalStatus,\n        address submitter\n    )\n    {\n        Proposal storage proposal = proposals[_proposalId];\n        return (\n            proposal.requestedAmount,\n            proposal.beneficiary,\n            proposal.stakedTokens,\n            proposal.convictionLast,\n            proposal.blockLast,\n            proposal.proposalStatus,\n            proposal.submitter\n        );\n    }\n\n    /**\n     * @notice Get stake of voter `_voter` on proposal #`_proposalId`\n     * @param _proposalId Proposal id\n     * @param _voter Voter address\n     * @return Proposal voter stake\n     */\n    function getProposalVoterStake(uint256 _proposalId, address _voter) public view returns (uint256) {\n        return proposals[_proposalId].voterStake[_voter];\n    }\n\n    /**\n     * @notice Get the total stake of voter `_voter` on all proposals\n     * @param _voter Voter address\n     * @return Total voter stake\n     */\n    function getTotalVoterStake(address _voter) public view returns (uint256) {\n        return totalVoterStake[_voter];\n    }\n\n    /**\n     * @notice Get all proposal ID's voter `_voter` has currently staked to\n     * @param _voter Voter address\n     * @return Voter proposals\n     */\n    function getVoterStakedProposals(address _voter) public view returns (uint256[]) {\n        return voterStakedProposals[_voter];\n    }\n\n    /**\n     * @dev Conviction formula: a^t * y(0) + x * (1 - a^t) / (1 - a)\n     * Solidity implementation: y = (2^128 * a^t * y0 + x * D * (2^128 - 2^128 * a^t) / (D - aD) + 2^127) / 2^128\n     * @param _timePassed Number of blocks since last conviction record\n     * @param _lastConv Last conviction record\n     * @param _oldAmount Amount of tokens staked until now\n     * @return Current conviction\n     */\n    function calculateConviction(\n        uint64 _timePassed,\n        uint256 _lastConv,\n        uint256 _oldAmount\n    )\n        public view returns(uint256)\n    {\n        uint256 t = uint256(_timePassed);\n        // atTWO_128 = 2^128 * a^t\n        uint256 atTWO_128 = _pow((decay << 128).div(D), t);\n        // solium-disable-previous-line\n        // conviction = (atTWO_128 * _lastConv + _oldAmount * D * (2^128 - atTWO_128) / (D - aD) + 2^127) / 2^128\n        return (atTWO_128.mul(_lastConv).add(_oldAmount.mul(D).mul(TWO_128.sub(atTWO_128)).div(D - decay))).add(TWO_127) >> 128;\n    }\n\n    /**\n     * @dev Formula:  * totalStaked / (1 - a) / ( - requestedAmount / total)**2\n     * For the Solidity implementation we amplify  and  and simplify the formula:\n     * weight =  * D\n     * maxRatio =  * D\n     * decay = a * D\n     * threshold = weight * totalStaked * D ** 2 * funds ** 2 / (D - decay) / (maxRatio * funds - requestedAmount * D) ** 2\n     * @param _requestedAmount Requested amount of tokens on certain proposal\n     * @return Threshold a proposal's conviction should surpass in order to be able to\n     * executed it.\n     */\n    function calculateThreshold(uint256 _requestedAmount) public view returns (uint256 _threshold) {\n        uint256 funds = vault.balance(requestToken);\n        require(maxRatio.mul(funds) > _requestedAmount.mul(D), ERROR_AMOUNT_OVER_MAX_RATIO);\n        // denom = maxRatio * 2 ** 64 / D  - requestedAmount * 2 ** 64 / funds\n        uint256 denom = (maxRatio << 64).div(D).sub((_requestedAmount << 64).div(funds));\n        // _threshold = (weight * 2 ** 128 / D) / (denom ** 2 / 2 ** 64) * totalStaked * D / 2 ** 128\n        _threshold = ((weight << 128).div(D).div(denom.mul(denom) >> 64)).mul(D).div(D.sub(decay)).mul(_totalStaked()) >> 64;\n    }\n\n    function _totalStaked() internal view returns (uint256) {\n        uint256 minTotalStake = (stakeToken.totalSupply().mul(minThresholdStakePercentage)).div(ONE_HUNDRED_PERCENT);\n        return totalStaked < minTotalStake ? minTotalStake : totalStaked;\n    }\n\n    /**\n     * @dev Overrides TokenManagerHook's `_onRegisterAsHook`\n     */\n    function _onRegisterAsHook(address _tokenManager, uint256 _hookId, address _token) internal {\n        require(_token == address(stakeToken), ERROR_INCORRECT_TOKEN_MANAGER_HOOK);\n    }\n\n    /**\n     * @dev Overrides TokenManagerHook's `_onTransfer`\n     */\n    function _onTransfer(address _from, address _to, uint256 _amount) internal returns (bool) {\n        if (_from == 0x0) {\n            return true; // Do nothing on token mintings\n        }\n\n        uint256 newBalance = stakeToken.balanceOf(_from).sub(_amount);\n        if (newBalance < totalVoterStake[_from]) {\n            _withdrawInactiveStakedTokens(totalVoterStake[_from].sub(newBalance), _from);\n        }\n\n        if (newBalance < totalVoterStake[_from]) {\n            _withdrawActiveStakedTokens(totalVoterStake[_from].sub(newBalance), _from);\n        }\n\n        return true;\n    }\n\n    /**\n     * Multiply _a by _b / 2^128.  Parameter _a should be less than or equal to\n     * 2^128 and parameter _b should be less than 2^128.\n     * @param _a left argument\n     * @param _b right argument\n     * @return _a * _b / 2^128\n     */\n    function _mul(uint256 _a, uint256 _b) internal pure returns (uint256 _result) {\n        require(_a <= TWO_128, \"_a should be less than or equal to 2^128\");\n        require(_b < TWO_128, \"_b should be less than 2^128\");\n        return _a.mul(_b).add(TWO_127) >> 128;\n    }\n\n    /**\n     * Calculate (_a / 2^128)^_b * 2^128.  Parameter _a should be less than 2^128.\n     *\n     * @param _a left argument\n     * @param _b right argument\n     * @return (_a / 2^128)^_b * 2^128\n     */\n    function _pow(uint256 _a, uint256 _b) internal pure returns (uint256 _result) {\n        require(_a < TWO_128, \"_a should be less than 2^128\");\n        uint256 a = _a;\n        uint256 b = _b;\n        _result = TWO_128;\n        while (b > 0) {\n            if (b & 1 == 0) {\n                a = _mul(a, a);\n                b >>= 1;\n            } else {\n                _result = _mul(_result, a);\n                b -= 1;\n            }\n        }\n    }\n\n    /**\n     * @dev Calculate conviction and store it on the proposal\n     * @param _proposal Proposal\n     * @param _oldStaked Amount of tokens staked on a proposal until now\n     */\n    function _calculateAndSetConviction(Proposal storage _proposal, uint256 _oldStaked) internal {\n        uint64 blockNumber = getBlockNumber64();\n        assert(_proposal.blockLast <= blockNumber);\n        if (_proposal.blockLast == blockNumber) {\n            return; // Conviction already stored\n        }\n        // calculateConviction and store it\n        uint256 conviction = calculateConviction(\n            blockNumber - _proposal.blockLast, // we assert it doesn't overflow above\n            _proposal.convictionLast,\n            _oldStaked\n        );\n        _proposal.blockLast = blockNumber;\n        _proposal.convictionLast = conviction;\n    }\n\n    /**\n     * @dev Stake an amount of tokens on a proposal\n     * @param _proposalId Proposal id\n     * @param _amount Amount of staked tokens\n     * @param _from Account from which we stake\n     */\n    function _stake(uint256 _proposalId, uint256 _amount, address _from) internal proposalExists(_proposalId) {\n        Proposal storage proposal = proposals[_proposalId];\n        require(_amount > 0, ERROR_AMOUNT_CAN_NOT_BE_ZERO);\n        require(proposal.proposalStatus == ProposalStatus.Active, ERROR_PROPOSAL_NOT_ACTIVE);\n\n        uint256 unstakedAmount = stakeToken.balanceOf(_from).sub(totalVoterStake[_from]);\n        if (_amount > unstakedAmount) {\n            _withdrawInactiveStakedTokens(_amount.sub(unstakedAmount), _from);\n        }\n\n        require(totalVoterStake[_from].add(_amount) <= stakeToken.balanceOf(_from), ERROR_STAKING_MORE_THAN_AVAILABLE);\n\n        uint256 previousStake = proposal.stakedTokens;\n        proposal.stakedTokens = proposal.stakedTokens.add(_amount);\n        proposal.voterStake[_from] = proposal.voterStake[_from].add(_amount);\n        totalVoterStake[_from] = totalVoterStake[_from].add(_amount);\n        totalStaked = totalStaked.add(_amount);\n\n        if (proposal.blockLast == 0) {\n            proposal.blockLast = getBlockNumber64();\n        } else {\n            _calculateAndSetConviction(proposal, previousStake);\n        }\n\n        _updateVoterStakedProposals(_proposalId, _from);\n\n        emit StakeAdded(_from, _proposalId, _amount, proposal.voterStake[_from], proposal.stakedTokens, proposal.convictionLast);\n    }\n\n    function _updateVoterStakedProposals(uint256 _proposalId, address _submitter) internal {\n        uint256[] storage voterStakedProposalsArray = voterStakedProposals[_submitter];\n\n        if (!voterStakedProposalsArray.contains(_proposalId)) {\n            require(voterStakedProposalsArray.length < MAX_STAKED_PROPOSALS, ERROR_MAX_PROPOSALS_REACHED);\n            voterStakedProposalsArray.push(_proposalId);\n        }\n    }\n\n    /**\n     * @dev Withdraw staked tokens from executed proposals until a target amount is reached.\n     * @param _targetAmount Target at which to stop withdrawing tokens\n     * @param _from Account to withdraw from\n     */\n    function _withdrawInactiveStakedTokens(uint256 _targetAmount, address _from) internal {\n        uint256 i = 0;\n        uint256 toWithdraw;\n        uint256 withdrawnAmount = 0;\n        uint256[] memory voterStakedProposalsCopy = voterStakedProposals[_from];\n\n        while (i < voterStakedProposalsCopy.length && withdrawnAmount < _targetAmount) {\n            uint256 proposalId = voterStakedProposalsCopy[i];\n            Proposal storage proposal = proposals[proposalId];\n\n            if (proposal.proposalStatus == ProposalStatus.Executed) {\n                toWithdraw = proposal.voterStake[_from];\n                if (toWithdraw > 0) {\n                    _withdrawFromProposal(proposalId, toWithdraw, _from);\n                    withdrawnAmount = withdrawnAmount.add(toWithdraw);\n                }\n            }\n            i++;\n        }\n    }\n\n    /**\n     * @dev Withdraw staked tokens from active proposals until a target amount is reached.\n     * @param _targetAmount Target at which to stop withdrawing tokens\n     * @param _from Account to withdraw from\n     */\n    function _withdrawActiveStakedTokens(uint256 _targetAmount, address _from) internal {\n        uint256 i = 0;\n        uint256 toWithdraw;\n        uint256 withdrawnAmount = 0;\n        uint256[] memory voterStakedProposalsCopy = voterStakedProposals[_from];\n\n        if (voterStakedProposals[_from].contains(ABSTAIN_PROPOSAL_ID)) {\n            toWithdraw = Math.min256(_targetAmount, proposals[ABSTAIN_PROPOSAL_ID].voterStake[_from]);\n            if (toWithdraw > 0) {\n                _withdrawFromProposal(ABSTAIN_PROPOSAL_ID, toWithdraw, _from);\n                withdrawnAmount = withdrawnAmount.add(toWithdraw);\n            }\n        }\n\n        // We reset this variable as _withdrawFromProposal can update voterStakedProposals\n        voterStakedProposalsCopy = voterStakedProposals[_from];\n\n        while (i < voterStakedProposalsCopy.length && withdrawnAmount < _targetAmount) {\n            uint256 proposalId = voterStakedProposalsCopy[i];\n            Proposal storage proposal = proposals[proposalId];\n\n            // In active proposals, we only subtract the needed amount to reach the target\n            toWithdraw = Math.min256(_targetAmount.sub(withdrawnAmount), proposal.voterStake[_from]);\n            if (toWithdraw > 0) {\n                _withdrawFromProposal(proposalId, toWithdraw, _from);\n                withdrawnAmount = withdrawnAmount.add(toWithdraw);\n            }\n            i++;\n        }\n    }\n\n    /**\n     * @dev Withdraw an amount of tokens from a proposal\n     * @param _proposalId Proposal id\n     * @param _amount Amount of withdrawn tokens\n     * @param _from Account to withdraw from\n     */\n    function _withdrawFromProposal(uint256 _proposalId, uint256 _amount, address _from) internal {\n        Proposal storage proposal = proposals[_proposalId];\n        require(proposal.voterStake[_from] >= _amount, ERROR_WITHDRAW_MORE_THAN_STAKED);\n        require(_amount > 0, ERROR_AMOUNT_CAN_NOT_BE_ZERO);\n\n        uint256 previousStake = proposal.stakedTokens;\n        proposal.stakedTokens = proposal.stakedTokens.sub(_amount);\n        proposal.voterStake[_from] = proposal.voterStake[_from].sub(_amount);\n        totalVoterStake[_from] = totalVoterStake[_from].sub(_amount);\n        totalStaked = totalStaked.sub(_amount);\n\n        if (proposal.voterStake[_from] == 0) {\n            voterStakedProposals[_from].deleteItem(_proposalId);\n        }\n\n        if (proposal.proposalStatus != ProposalStatus.Executed) {\n            _calculateAndSetConviction(proposal, previousStake);\n        }\n\n        emit StakeWithdrawn(_from, _proposalId, _amount, proposal.voterStake[_from], proposal.stakedTokens, proposal.convictionLast);\n    }\n}\n",
  "sourcePath": "/Users/fabri/Documents/work/aragon/1hive/conviction-voting-app/contracts/ConvictionVoting.sol",
  "compiler": {
    "name": "solc",
    "version": "0.4.24+commit.e67f0147.Emscripten.clang"
  },
  "schemaVersion": "3.0.19",
  "updatedAt": "2020-08-10T13:40:02.544Z",
  "devdoc": {
    "methods": {
      "addProposal(string,bytes,uint256,address)": {
        "params": {
          "_beneficiary": "Address that will receive payment",
          "_link": "IPFS or HTTP link with proposal's description",
          "_requestedAmount": "Tokens requested",
          "_title": "Title of the proposal"
        }
      },
      "allowRecoverability(address)": {
        "details": "By default deriving from AragonApp makes it recoverable",
        "params": {
          "token": "Token address that would be recovered"
        },
        "return": "bool whether the app allows the recovery"
      },
      "calculateConviction(uint64,uint256,uint256)": {
        "details": "Conviction formula: a^t * y(0) + x * (1 - a^t) / (1 - a) Solidity implementation: y = (2^128 * a^t * y0 + x * D * (2^128 - 2^128 * a^t) / (D - aD) + 2^127) / 2^128",
        "params": {
          "_lastConv": "Last conviction record",
          "_oldAmount": "Amount of tokens staked until now",
          "_timePassed": "Number of blocks since last conviction record"
        },
        "return": "Current conviction"
      },
      "calculateThreshold(uint256)": {
        "details": "Formula:  * totalStaked / (1 - a) / ( - requestedAmount / total)**2 For the Solidity implementation we amplify  and  and simplify the formula: weight =  * D maxRatio =  * D decay = a * D threshold = weight * totalStaked * D ** 2 * funds ** 2 / (D - decay) / (maxRatio * funds - requestedAmount * D) ** 2",
        "params": {
          "_requestedAmount": "Requested amount of tokens on certain proposal"
        },
        "return": "Threshold a proposal's conviction should surpass in order to be able to executed it."
      },
      "canPerform(address,bytes32,uint256[])": {
        "details": "Check whether an action can be performed by a sender for a particular role on this app",
        "params": {
          "_params": "Permission params for the role",
          "_role": "Role on this app",
          "_sender": "Sender of the call"
        },
        "return": "Boolean indicating whether the sender has the permissions to perform the action.        Always returns false if the app hasn't been initialized yet."
      },
      "cancelProposal(uint256)": {
        "params": {
          "_proposalId": "Proposal id"
        }
      },
      "executeProposal(uint256)": {
        "details": "...by sending `@tokenAmount((self.requestToken(): address), self.getPropoal(_proposalId): ([uint256], address, uint256, uint256, uint64, bool))` to `self.getPropoal(_proposalId): (uint256, [address], uint256, uint256, uint64, bool)`",
        "params": {
          "_proposalId": "Proposal id"
        }
      },
      "getInitializationBlock()": {
        "return": "Block number in which the contract was initialized"
      },
      "getProposal(uint256)": {
        "details": "Get proposal details",
        "params": {
          "_proposalId": "Proposal id"
        },
        "return": "Requested amountBeneficiary addressCurrent total stake of tokens on this proposalConviction this proposal had last time calculateAndSetConviction was calledBlock when calculateAndSetConviction was calledTrue if proposal has already been executedProposalStatus defining the state of the proposalSubmitter of the proposal"
      },
      "getProposalVoterStake(uint256,address)": {
        "params": {
          "_proposalId": "Proposal id",
          "_voter": "Voter address"
        },
        "return": "Proposal voter stake"
      },
      "getRecoveryVault()": {
        "details": "Get the recovery vault for the app",
        "return": "Recovery vault address for the app"
      },
      "getTotalVoterStake(address)": {
        "params": {
          "_voter": "Voter address"
        },
        "return": "Total voter stake"
      },
      "getVoterStakedProposals(address)": {
        "params": {
          "_voter": "Voter address"
        },
        "return": "Voter proposals"
      },
      "hasInitialized()": {
        "return": "Whether the contract has been initialized by the time of the current block"
      },
      "stakeAllToProposal(uint256)": {
        "params": {
          "_proposalId": "Proposal id"
        }
      },
      "stakeToProposal(uint256,uint256)": {
        "params": {
          "_amount": "Amount of tokens staked",
          "_proposalId": "Proposal id"
        }
      },
      "transferToVault(address)": {
        "params": {
          "_token": "Token balance to be sent to recovery vault."
        }
      },
      "withdrawAllFromProposal(uint256)": {
        "params": {
          "_proposalId": "Proposal id"
        }
      },
      "withdrawFromProposal(uint256,uint256)": {
        "params": {
          "_amount": "Amount of tokens withdrawn",
          "_proposalId": "Proposal id"
        }
      }
    }
  },
  "userdoc": {
    "methods": {
      "addProposal(string,bytes,uint256,address)": {
        "notice": "Add proposal `_title` for  `@tokenAmount((self.requestToken(): address), _requestedAmount)` to `_beneficiary`"
      },
      "cancelProposal(uint256)": {
        "notice": "Cancel proposal #`_proposalId`"
      },
      "executeProposal(uint256)": {
        "notice": "Execute proposal #`_proposalId`"
      },
      "getProposalVoterStake(uint256,address)": {
        "notice": "Get stake of voter `_voter` on proposal #`_proposalId`"
      },
      "getTotalVoterStake(address)": {
        "notice": "Get the total stake of voter `_voter` on all proposals"
      },
      "getVoterStakedProposals(address)": {
        "notice": "Get all proposal ID's voter `_voter` has currently staked to"
      },
      "stakeAllToProposal(uint256)": {
        "notice": "Stake all my `(self.stakeToken(): address).symbol(): string` tokens on proposal #`_proposalId`"
      },
      "stakeToProposal(uint256,uint256)": {
        "notice": "Stake `@tokenAmount((self.stakeToken(): address), _amount)` on proposal #`_proposalId`"
      },
      "transferToVault(address)": {
        "notice": "Send funds to recovery Vault. This contract should never receive funds,        but in case it does, this function allows one to recover them."
      },
      "withdrawAllFromProposal(uint256)": {
        "notice": "Withdraw all `(self.stakeToken(): address).symbol(): string` tokens previously staked on proposal #`_proposalId`"
      },
      "withdrawFromProposal(uint256,uint256)": {
        "notice": "Withdraw `@tokenAmount((self.stakeToken(): address), _amount)` previously staked on proposal #`_proposalId`"
      }
    }
  }
}